{
  "contractName": "Auctioner",
  "abi": [
    {
      "inputs": [
        {
          "internalType": "contract IERC721",
          "name": "_nft",
          "type": "address"
        }
      ],
      "stateMutability": "nonpayable",
      "type": "constructor"
    },
    {
      "anonymous": false,
      "inputs": [
        {
          "indexed": true,
          "internalType": "uint256",
          "name": "nftId",
          "type": "uint256"
        },
        {
          "indexed": true,
          "internalType": "address",
          "name": "sender",
          "type": "address"
        },
        {
          "indexed": false,
          "internalType": "uint256",
          "name": "amount",
          "type": "uint256"
        }
      ],
      "name": "Bid",
      "type": "event"
    },
    {
      "anonymous": false,
      "inputs": [
        {
          "indexed": true,
          "internalType": "uint256",
          "name": "nftId",
          "type": "uint256"
        },
        {
          "indexed": false,
          "internalType": "address",
          "name": "seller",
          "type": "address"
        }
      ],
      "name": "Cancel",
      "type": "event"
    },
    {
      "anonymous": false,
      "inputs": [
        {
          "indexed": true,
          "internalType": "uint256",
          "name": "nftId",
          "type": "uint256"
        },
        {
          "indexed": false,
          "internalType": "address",
          "name": "winner",
          "type": "address"
        },
        {
          "indexed": false,
          "internalType": "uint256",
          "name": "price",
          "type": "uint256"
        }
      ],
      "name": "End",
      "type": "event"
    },
    {
      "anonymous": false,
      "inputs": [
        {
          "indexed": true,
          "internalType": "uint256",
          "name": "nftId",
          "type": "uint256"
        },
        {
          "indexed": false,
          "internalType": "address",
          "name": "owner",
          "type": "address"
        },
        {
          "indexed": false,
          "internalType": "uint256",
          "name": "startAmount",
          "type": "uint256"
        }
      ],
      "name": "Start",
      "type": "event"
    },
    {
      "anonymous": false,
      "inputs": [
        {
          "indexed": true,
          "internalType": "uint256",
          "name": "nftId",
          "type": "uint256"
        },
        {
          "indexed": true,
          "internalType": "address",
          "name": "bidder",
          "type": "address"
        },
        {
          "indexed": false,
          "internalType": "uint256",
          "name": "amount",
          "type": "uint256"
        }
      ],
      "name": "Withdraw",
      "type": "event"
    },
    {
      "inputs": [],
      "name": "nft",
      "outputs": [
        {
          "internalType": "contract IERC721",
          "name": "",
          "type": "address"
        }
      ],
      "stateMutability": "view",
      "type": "function",
      "constant": true
    },
    {
      "inputs": [
        {
          "internalType": "uint256",
          "name": "_nftId",
          "type": "uint256"
        }
      ],
      "name": "getBid",
      "outputs": [
        {
          "internalType": "uint256",
          "name": "",
          "type": "uint256"
        }
      ],
      "stateMutability": "view",
      "type": "function",
      "constant": true
    },
    {
      "inputs": [
        {
          "internalType": "uint256",
          "name": "_nftId",
          "type": "uint256"
        }
      ],
      "name": "getAuction",
      "outputs": [
        {
          "internalType": "address",
          "name": "",
          "type": "address"
        },
        {
          "internalType": "uint256",
          "name": "",
          "type": "uint256"
        },
        {
          "internalType": "uint256",
          "name": "",
          "type": "uint256"
        },
        {
          "internalType": "address",
          "name": "",
          "type": "address"
        }
      ],
      "stateMutability": "view",
      "type": "function",
      "constant": true
    },
    {
      "inputs": [
        {
          "internalType": "uint256",
          "name": "_nftId",
          "type": "uint256"
        },
        {
          "internalType": "uint256",
          "name": "startAmount",
          "type": "uint256"
        },
        {
          "internalType": "uint64",
          "name": "daysDeadline",
          "type": "uint64"
        }
      ],
      "name": "start",
      "outputs": [],
      "stateMutability": "nonpayable",
      "type": "function"
    },
    {
      "inputs": [
        {
          "internalType": "uint256",
          "name": "_nftId",
          "type": "uint256"
        }
      ],
      "name": "bid",
      "outputs": [],
      "stateMutability": "payable",
      "type": "function",
      "payable": true
    },
    {
      "inputs": [
        {
          "internalType": "uint256",
          "name": "_nftId",
          "type": "uint256"
        }
      ],
      "name": "withdraw",
      "outputs": [],
      "stateMutability": "payable",
      "type": "function",
      "payable": true
    },
    {
      "inputs": [
        {
          "internalType": "uint256",
          "name": "_nftId",
          "type": "uint256"
        }
      ],
      "name": "end",
      "outputs": [],
      "stateMutability": "nonpayable",
      "type": "function"
    },
    {
      "inputs": [
        {
          "internalType": "uint256",
          "name": "_nftId",
          "type": "uint256"
        }
      ],
      "name": "cancel",
      "outputs": [],
      "stateMutability": "nonpayable",
      "type": "function"
    }
  ],
  "bytecode": "0x60806040523480156200001157600080fd5b50604051620024b6380380620024b6833981810160405281019062000037919062000095565b806000806101000a81548173ffffffffffffffffffffffffffffffffffffffff021916908373ffffffffffffffffffffffffffffffffffffffff1602179055505062000123565b6000815190506200008f8162000109565b92915050565b600060208284031215620000a857600080fd5b6000620000b8848285016200007e565b91505092915050565b6000620000ce82620000e9565b9050919050565b6000620000e282620000c1565b9050919050565b600073ffffffffffffffffffffffffffffffffffffffff82169050919050565b6200011481620000d5565b81146200012057600080fd5b50565b61238380620001336000396000f3fe60806040526004361061007b5760003560e01c8063454a2ab31161004e578063454a2ab31461012b57806347ccca021461014757806378bd793514610172578063ab58ed90146101b25761007b565b80630ad24528146100805780632e1a7d4d146100a95780633c889e6f146100c557806340e58ee514610102575b600080fd5b34801561008c57600080fd5b506100a760048036038101906100a29190611981565b6101db565b005b6100c360048036038101906100be9190611981565b610709565b005b3480156100d157600080fd5b506100ec60048036038101906100e79190611981565b6109f0565b6040516100f99190611ee3565b60405180910390f35b34801561010e57600080fd5b5061012960048036038101906101249190611981565b610a4a565b005b61014560048036038101906101409190611981565b610e03565b005b34801561015357600080fd5b5061015c6111da565b6040516101699190611d08565b60405180910390f35b34801561017e57600080fd5b5061019960048036038101906101949190611981565b6111fe565b6040516101a99493929190611cc3565b60405180910390f35b3480156101be57600080fd5b506101d960048036038101906101d491906119aa565b61135b565b005b80610237600260008381526020019081526020016000206001016040518060200160405290816000820160009054906101000a900467ffffffffffffffff1667ffffffffffffffff1667ffffffffffffffff168152505061184d565b610276576040517f08c379a000000000000000000000000000000000000000000000000000000000815260040161026d90611e23565b60405180910390fd5b6102d1600260008381526020019081526020016000206001016040518060200160405290816000820160009054906101000a900467ffffffffffffffff1667ffffffffffffffff1667ffffffffffffffff1681525050611867565b610310576040517f08c379a000000000000000000000000000000000000000000000000000000000815260040161030790611d83565b60405180910390fd5b6000600260008481526020019081526020016000209050600073ffffffffffffffffffffffffffffffffffffffff168160030160009054906101000a900473ffffffffffffffffffffffffffffffffffffffff1673ffffffffffffffffffffffffffffffffffffffff16146105e85760008054906101000a900473ffffffffffffffffffffffffffffffffffffffff1673ffffffffffffffffffffffffffffffffffffffff166323b872dd308360030160009054906101000a900473ffffffffffffffffffffffffffffffffffffffff16866040518463ffffffff1660e01b815260040161040093929190611c63565b600060405180830381600087803b15801561041a57600080fd5b505af115801561042e573d6000803e3d6000fd5b5050505060006001600085815260200190815260200160002060008360030160009054906101000a900473ffffffffffffffffffffffffffffffffffffffff1673ffffffffffffffffffffffffffffffffffffffff1673ffffffffffffffffffffffffffffffffffffffff1681526020019081526020016000208190555060008160000160009054906101000a900473ffffffffffffffffffffffffffffffffffffffff1673ffffffffffffffffffffffffffffffffffffffff1682600201546040516104fa90611c33565b60006040518083038185875af1925050503d8060008114610537576040519150601f19603f3d011682016040523d82523d6000602084013e61053c565b606091505b5050905080610580576040517f08c379a000000000000000000000000000000000000000000000000000000000815260040161057790611e03565b60405180910390fd5b837fad71bc980e1f9155e488acf543cc5276beae185d612505ea3eaff929e4fe37f08360030160009054906101000a900473ffffffffffffffffffffffffffffffffffffffff1684600201546040516105da929190611c9a565b60405180910390a2506106f8565b60008054906101000a900473ffffffffffffffffffffffffffffffffffffffff1673ffffffffffffffffffffffffffffffffffffffff166323b872dd308360000160009054906101000a900473ffffffffffffffffffffffffffffffffffffffff16866040518463ffffffff1660e01b815260040161066993929190611c63565b600060405180830381600087803b15801561068357600080fd5b505af1158015610697573d6000803e3d6000fd5b50505050827f8dd3c361eb2366ff27c2db0eb07b9261f1d052570742ab8c9a0c326f37aa576d8260000160009054906101000a900473ffffffffffffffffffffffffffffffffffffffff166040516106ef9190611c48565b60405180910390a25b61070481600101611893565b505050565b8060006001600083815260200190815260200160002060003373ffffffffffffffffffffffffffffffffffffffff1673ffffffffffffffffffffffffffffffffffffffff168152602001908152602001600020541161079d576040517f08c379a000000000000000000000000000000000000000000000000000000000815260040161079490611e43565b60405180910390fd5b813373ffffffffffffffffffffffffffffffffffffffff166002600083815260200190815260200160002060030160009054906101000a900473ffffffffffffffffffffffffffffffffffffffff1673ffffffffffffffffffffffffffffffffffffffff161415610843576040517f08c379a000000000000000000000000000000000000000000000000000000000815260040161083a90611e83565b60405180910390fd5b60006001600085815260200190815260200160002060003373ffffffffffffffffffffffffffffffffffffffff1673ffffffffffffffffffffffffffffffffffffffff16815260200190815260200160002054905060006001600086815260200190815260200160002060003373ffffffffffffffffffffffffffffffffffffffff1673ffffffffffffffffffffffffffffffffffffffff1681526020019081526020016000208190555060003373ffffffffffffffffffffffffffffffffffffffff168260405161091490611c33565b60006040518083038185875af1925050503d8060008114610951576040519150601f19603f3d011682016040523d82523d6000602084013e610956565b606091505b505090508061099a576040517f08c379a000000000000000000000000000000000000000000000000000000000815260040161099190611ec3565b60405180910390fd5b3373ffffffffffffffffffffffffffffffffffffffff16857f9da6493a92039daf47d1f2d7a782299c5994c6323eb1e972f69c432089ec52bf846040516109e19190611ee3565b60405180910390a35050505050565b60006001600083815260200190815260200160002060003373ffffffffffffffffffffffffffffffffffffffff1673ffffffffffffffffffffffffffffffffffffffff168152602001908152602001600020549050919050565b80610aa6600260008381526020019081526020016000206001016040518060200160405290816000820160009054906101000a900467ffffffffffffffff1667ffffffffffffffff1667ffffffffffffffff168152505061184d565b610ae5576040517f08c379a0000000000000000000000000000000000000000000000000000000008152600401610adc90611e23565b60405180910390fd5b610b40600260008381526020019081526020016000206001016040518060200160405290816000820160009054906101000a900467ffffffffffffffff1667ffffffffffffffff1667ffffffffffffffff16815250506118c2565b610b7f576040517f08c379a0000000000000000000000000000000000000000000000000000000008152600401610b7690611ea3565b60405180910390fd5b81600073ffffffffffffffffffffffffffffffffffffffff166002600083815260200190815260200160002060030160009054906101000a900473ffffffffffffffffffffffffffffffffffffffff1673ffffffffffffffffffffffffffffffffffffffff1614610c25576040517f08c379a0000000000000000000000000000000000000000000000000000000008152600401610c1c90611de3565b60405180910390fd5b823373ffffffffffffffffffffffffffffffffffffffff166002600083815260200190815260200160002060000160009054906101000a900473ffffffffffffffffffffffffffffffffffffffff1673ffffffffffffffffffffffffffffffffffffffff1614610cca576040517f08c379a0000000000000000000000000000000000000000000000000000000008152600401610cc190611dc3565b60405180910390fd5b600060026000868152602001908152602001600020905060008054906101000a900473ffffffffffffffffffffffffffffffffffffffff1673ffffffffffffffffffffffffffffffffffffffff166323b872dd308360000160009054906101000a900473ffffffffffffffffffffffffffffffffffffffff16886040518463ffffffff1660e01b8152600401610d6293929190611c63565b600060405180830381600087803b158015610d7c57600080fd5b505af1158015610d90573d6000803e3d6000fd5b50505050610da081600101611893565b847f8dd3c361eb2366ff27c2db0eb07b9261f1d052570742ab8c9a0c326f37aa576d8260000160009054906101000a900473ffffffffffffffffffffffffffffffffffffffff16604051610df49190611c48565b60405180910390a25050505050565b80610e5f600260008381526020019081526020016000206001016040518060200160405290816000820160009054906101000a900467ffffffffffffffff1667ffffffffffffffff1667ffffffffffffffff168152505061184d565b610e9e576040517f08c379a0000000000000000000000000000000000000000000000000000000008152600401610e9590611e23565b60405180910390fd5b610ef9600260008381526020019081526020016000206001016040518060200160405290816000820160009054906101000a900467ffffffffffffffff1667ffffffffffffffff1667ffffffffffffffff16815250506118c2565b610f38576040517f08c379a0000000000000000000000000000000000000000000000000000000008152600401610f2f90611ea3565b60405180910390fd5b813373ffffffffffffffffffffffffffffffffffffffff166002600083815260200190815260200160002060000160009054906101000a900473ffffffffffffffffffffffffffffffffffffffff1673ffffffffffffffffffffffffffffffffffffffff161415610fde576040517f08c379a0000000000000000000000000000000000000000000000000000000008152600401610fd590611d23565b60405180910390fd5b60006002600085815260200190815260200160002090506000346001600087815260200190815260200160002060003373ffffffffffffffffffffffffffffffffffffffff1673ffffffffffffffffffffffffffffffffffffffff168152602001908152602001600020546110539190611f1a565b90508160020154811161109b576040517f08c379a000000000000000000000000000000000000000000000000000000000815260040161109290611e63565b60405180910390fd5b338260030160006101000a81548173ffffffffffffffffffffffffffffffffffffffff021916908373ffffffffffffffffffffffffffffffffffffffff160217905550808260020181905550806001600087815260200190815260200160002060008460030160009054906101000a900473ffffffffffffffffffffffffffffffffffffffff1673ffffffffffffffffffffffffffffffffffffffff1673ffffffffffffffffffffffffffffffffffffffff168152602001908152602001600020819055508160030160009054906101000a900473ffffffffffffffffffffffffffffffffffffffff1673ffffffffffffffffffffffffffffffffffffffff16857fdcd726e11f8b5e160f00290f0fe3a1abb547474e53a8e7a8f49a85e7b1ca3199836040516111cb9190611ee3565b60405180910390a35050505050565b60008054906101000a900473ffffffffffffffffffffffffffffffffffffffff1681565b6000806000806000600260008781526020019081526020016000206040518060800160405290816000820160009054906101000a900473ffffffffffffffffffffffffffffffffffffffff1673ffffffffffffffffffffffffffffffffffffffff1673ffffffffffffffffffffffffffffffffffffffff168152602001600182016040518060200160405290816000820160009054906101000a900467ffffffffffffffff1667ffffffffffffffff1667ffffffffffffffff16815250508152602001600282015481526020016003820160009054906101000a900473ffffffffffffffffffffffffffffffffffffffff1673ffffffffffffffffffffffffffffffffffffffff1673ffffffffffffffffffffffffffffffffffffffff16815250509050806000015161133482602001516118dc565b826040015183606001518267ffffffffffffffff1692509450945094509450509193509193565b826113b7600260008381526020019081526020016000206001016040518060200160405290816000820160009054906101000a900467ffffffffffffffff1667ffffffffffffffff1667ffffffffffffffff16815250506118c2565b156113f7576040517f08c379a00000000000000000000000000000000000000000000000000000000081526004016113ee90611d83565b60405180910390fd5b833373ffffffffffffffffffffffffffffffffffffffff1660008054906101000a900473ffffffffffffffffffffffffffffffffffffffff1673ffffffffffffffffffffffffffffffffffffffff16636352211e836040518263ffffffff1660e01b81526004016114689190611ee3565b60206040518083038186803b15801561148057600080fd5b505afa158015611494573d6000803e3d6000fd5b505050506040513d601f19601f820116820180604052508101906114b89190611958565b73ffffffffffffffffffffffffffffffffffffffff161461150e576040517f08c379a000000000000000000000000000000000000000000000000000000000815260040161150590611d63565b60405180910390fd5b60008411611551576040517f08c379a000000000000000000000000000000000000000000000000000000000815260040161154890611da3565b60405180910390fd5b60038367ffffffffffffffff16101580156115775750603c8367ffffffffffffffff1611155b6115b6576040517f08c379a00000000000000000000000000000000000000000000000000000000081526004016115ad90611d43565b60405180910390fd5b600060026000878152602001908152602001600020905061160662015180856115df9190611f70565b67ffffffffffffffff16426115f49190611f1a565b826001016118ea90919063ffffffff16565b60405180608001604052803373ffffffffffffffffffffffffffffffffffffffff168152602001826001016040518060200160405290816000820160009054906101000a900467ffffffffffffffff1667ffffffffffffffff1667ffffffffffffffff16815250508152602001868152602001600073ffffffffffffffffffffffffffffffffffffffff168152506002600088815260200190815260200160002060008201518160000160006101000a81548173ffffffffffffffffffffffffffffffffffffffff021916908373ffffffffffffffffffffffffffffffffffffffff16021790555060208201518160010160008201518160000160006101000a81548167ffffffffffffffff021916908367ffffffffffffffff16021790555050506040820151816002015560608201518160030160006101000a81548173ffffffffffffffffffffffffffffffffffffffff021916908373ffffffffffffffffffffffffffffffffffffffff16021790555090505060008054906101000a900473ffffffffffffffffffffffffffffffffffffffff1673ffffffffffffffffffffffffffffffffffffffff166323b872dd3330896040518463ffffffff1660e01b81526004016117d993929190611c63565b600060405180830381600087803b1580156117f357600080fd5b505af1158015611807573d6000803e3d6000fd5b50505050857fde4164eea942dd001cdc898565cb8b2d25861c322c3c1e695630687d11036f15338760405161183d929190611c9a565b60405180910390a2505050505050565b600080826000015167ffffffffffffffff16119050919050565b60006118728261184d565b801561188c575042826000015167ffffffffffffffff1611155b9050919050565b60008160000160006101000a81548167ffffffffffffffff021916908367ffffffffffffffff16021790555050565b600042826000015167ffffffffffffffff16119050919050565b600081600001519050919050565b808260000160006101000a81548167ffffffffffffffff021916908367ffffffffffffffff1602179055505050565b60008151905061192881612308565b92915050565b60008135905061193d8161231f565b92915050565b60008135905061195281612336565b92915050565b60006020828403121561196a57600080fd5b600061197884828501611919565b91505092915050565b60006020828403121561199357600080fd5b60006119a18482850161192e565b91505092915050565b6000806000606084860312156119bf57600080fd5b60006119cd8682870161192e565b93505060206119de8682870161192e565b92505060406119ef86828701611943565b9150509250925092565b611a0281611fb2565b82525050565b611a1181612002565b82525050565b6000611a24602083611f09565b9150611a2f82612055565b602082019050919050565b6000611a47602e83611f09565b9150611a528261207e565b604082019050919050565b6000611a6a602083611f09565b9150611a75826120cd565b602082019050919050565b6000611a8d601983611f09565b9150611a98826120f6565b602082019050919050565b6000611ab0601b83611f09565b9150611abb8261211f565b602082019050919050565b6000611ad3602083611f09565b9150611ade82612148565b602082019050919050565b6000611af6602683611f09565b9150611b0182612171565b604082019050919050565b6000611b19601583611f09565b9150611b24826121c0565b602082019050919050565b6000611b3c601883611f09565b9150611b47826121e9565b602082019050919050565b6000611b5f602083611f09565b9150611b6a82612212565b602082019050919050565b6000611b82601583611f09565b9150611b8d8261223b565b602082019050919050565b6000611ba5602983611f09565b9150611bb082612264565b604082019050919050565b6000611bc8600083611efe565b9150611bd3826122b3565b600082019050919050565b6000611beb601a83611f09565b9150611bf6826122b6565b602082019050919050565b6000611c0e601283611f09565b9150611c19826122df565b602082019050919050565b611c2d81611fe4565b82525050565b6000611c3e82611bbb565b9150819050919050565b6000602082019050611c5d60008301846119f9565b92915050565b6000606082019050611c7860008301866119f9565b611c8560208301856119f9565b611c926040830184611c24565b949350505050565b6000604082019050611caf60008301856119f9565b611cbc6020830184611c24565b9392505050565b6000608082019050611cd860008301876119f9565b611ce56020830186611c24565b611cf26040830185611c24565b611cff60608301846119f9565b95945050505050565b6000602082019050611d1d6000830184611a08565b92915050565b60006020820190508181036000830152611d3c81611a17565b9050919050565b60006020820190508181036000830152611d5c81611a3a565b9050919050565b60006020820190508181036000830152611d7c81611a5d565b9050919050565b60006020820190508181036000830152611d9c81611a80565b9050919050565b60006020820190508181036000830152611dbc81611aa3565b9050919050565b60006020820190508181036000830152611ddc81611ac6565b9050919050565b60006020820190508181036000830152611dfc81611ae9565b9050919050565b60006020820190508181036000830152611e1c81611b0c565b9050919050565b60006020820190508181036000830152611e3c81611b2f565b9050919050565b60006020820190508181036000830152611e5c81611b52565b9050919050565b60006020820190508181036000830152611e7c81611b75565b9050919050565b60006020820190508181036000830152611e9c81611b98565b9050919050565b60006020820190508181036000830152611ebc81611bde565b9050919050565b60006020820190508181036000830152611edc81611c01565b9050919050565b6000602082019050611ef86000830184611c24565b92915050565b600081905092915050565b600082825260208201905092915050565b6000611f2582611fe4565b9150611f3083611fe4565b9250827fffffffffffffffffffffffffffffffffffffffffffffffffffffffffffffffff03821115611f6557611f64612026565b5b828201905092915050565b6000611f7b82611fee565b9150611f8683611fee565b92508167ffffffffffffffff0483118215151615611fa757611fa6612026565b5b828202905092915050565b6000611fbd82611fc4565b9050919050565b600073ffffffffffffffffffffffffffffffffffffffff82169050919050565b6000819050919050565b600067ffffffffffffffff82169050919050565b600061200d82612014565b9050919050565b600061201f82611fc4565b9050919050565b7f4e487b7100000000000000000000000000000000000000000000000000000000600052601160045260246000fd5b7f596f752063616e206e6f74206269642061732061204e46542073656c6c657221600082015250565b7f41756374696f6e20646561646c696e65206861766520746f2062652066726f6d60008201527f203320746f203630206461797321000000000000000000000000000000000000602082015250565b7f4f6e6c79206f776e65722063616e20737461727420616e2061756374696f6e21600082015250565b7f41756374696f6e206973207374696c6c206f6e676f696e672100000000000000600082015250565b7f5374617274696e6720616d6f756e7420697320746f6f206c6f77210000000000600082015250565b7f4f6e6c79206f776e65722063616e20627265616b20616e2061756374696f6e21600082015250565b7f596f752063616e206e6f7420627265616b207768656e2074686572652069732060008201527f6120626964210000000000000000000000000000000000000000000000000000602082015250565b7f436f756c64206e6f74207061792073656c6c6572210000000000000000000000600082015250565b7f596f75206e65656420746f207374617274206669727374210000000000000000600082015250565b7f596f7520646964206e6f742062696420696e20746869732061756374696f6e21600082015250565b7f4269642076616c756520697320746f6f206c6f77210000000000000000000000600082015250565b7f596f752063616e206e6f7420776974686472617720617320612063757272656e60008201527f74206c6561646572210000000000000000000000000000000000000000000000602082015250565b50565b7f41756374696f6e2068617320616c726561647920656e64656421000000000000600082015250565b7f436f756c64206e6f742077697468647261770000000000000000000000000000600082015250565b61231181611fb2565b811461231c57600080fd5b50565b61232881611fe4565b811461233357600080fd5b50565b61233f81611fee565b811461234a57600080fd5b5056fea2646970667358221220022371a238d41753ea3c47ab4ed9ee78fe93ce3338dd45c84b29da270df7067a64736f6c63430008010033",
  "immutableReferences": {},
  "source": "// contracts/Days365.sol\r\n// SPDX-License-Identifier: MIT\r\npragma solidity ^0.8.1;\r\n\r\nimport \"@openzeppelin/contracts/utils/Timers.sol\";\r\nimport \"@openzeppelin/contracts/token/ERC721/IERC721.sol\";\r\n\r\n\r\ncontract Auctioner {\r\n    using Timers for Timers.Timestamp;\r\n\r\n    event Start(uint indexed nftId, address owner, uint startAmount);\r\n    event End(uint indexed nftId, address winner, uint price);\r\n    event Cancel(uint indexed nftId, address seller);\r\n    event Bid(uint indexed nftId, address indexed sender, uint amount);\r\n    event Withdraw(uint indexed nftId, address indexed bidder, uint amount);\r\n\r\n    IERC721 public nft;\r\n\r\n    struct Auction {\r\n        address seller;\r\n        Timers.Timestamp _timestamp;\r\n        uint currentBid;\r\n        address currentWinner;\r\n    }\r\n\r\n    mapping(uint => mapping(address => uint)) bids;\r\n    mapping(uint => Auction) internal auctions;\r\n\r\n    constructor (IERC721 _nft)\r\n    {\r\n        nft = _nft;\r\n    }\r\n\r\n    function getBid(uint _nftId) public view returns(uint) {\r\n        return bids[_nftId][msg.sender];\r\n    }\r\n\r\n    function getAuction(uint _nftId) public view returns(address, uint, uint, address) {\r\n        Auction memory auction = auctions[_nftId];\r\n        return (\r\n            auction.seller, \r\n            auction._timestamp.getDeadline(), \r\n            auction.currentBid, \r\n            auction.currentWinner\r\n        );\r\n    }\r\n\r\n    function start(uint _nftId, uint startAmount, uint64 daysDeadline) external isNotPending(_nftId) isNftOwner(_nftId) {\r\n        require(startAmount > 0, \"Starting amount is too low!\");\r\n        require(daysDeadline >= 3 && daysDeadline <= 60, \"Auction deadline have to be from 3 to 60 days!\");\r\n        Auction storage auction = auctions[_nftId];\r\n        auction._timestamp.setDeadline(uint64(block.timestamp + daysDeadline * 1 days));\r\n        auctions[_nftId] = Auction(\r\n            msg.sender,\r\n            auction._timestamp,\r\n            startAmount,\r\n            address(0)\r\n        );\r\n\r\n        nft.transferFrom(msg.sender, address(this), _nftId);\r\n        emit Start(_nftId, msg.sender, startAmount);\r\n    }\r\n\r\n    function bid(uint _nftId) external payable isPending(_nftId) isNotSeller(_nftId) {\r\n        Auction storage auction = auctions[_nftId];\r\n\r\n        uint bidValue = bids[_nftId][msg.sender] + msg.value;\r\n        require(bidValue > auction.currentBid, \"Bid value is too low!\");\r\n\r\n        auction.currentWinner = msg.sender;\r\n        auction.currentBid = bidValue;\r\n        bids[_nftId][auction.currentWinner] = bidValue;\r\n\r\n        emit Bid(_nftId, auction.currentWinner, bidValue);\r\n    }\r\n\r\n    function withdraw(uint _nftId) external payable isBidder(_nftId) isNotLeader(_nftId) {\r\n        uint amount = bids[_nftId][msg.sender];\r\n        bids[_nftId][msg.sender] = 0;\r\n        (bool sent, ) = payable(msg.sender).call{value: amount}(\"\");\r\n        require(sent, \"Could not withdraw\");\r\n        emit Withdraw(_nftId, msg.sender, amount);\r\n    }\r\n\r\n    function end(uint _nftId) external isExpired(_nftId) {\r\n        Auction storage auction = auctions[_nftId];\r\n\r\n        if (auction.currentWinner != address(0)) \r\n        {\r\n            nft.transferFrom(address(this), auction.currentWinner, _nftId);\r\n            bids[_nftId][auction.currentWinner] = 0;\r\n            (bool sent, ) = auction.seller.call{value: auction.currentBid}(\"\");\r\n            require(sent, \"Could not pay seller!\");\r\n            emit End(_nftId, auction.currentWinner, auction.currentBid);\r\n        } else \r\n        {\r\n            nft.transferFrom(address(this), auction.seller, _nftId);\r\n            emit Cancel(_nftId, auction.seller);\r\n        }\r\n\r\n        auction._timestamp.reset();\r\n    }\r\n\r\n    function cancel(uint _nftId) external isPending(_nftId) areNoBidders(_nftId) isSeller(_nftId) {\r\n        Auction storage auction = auctions[_nftId];\r\n        nft.transferFrom(address(this), auction.seller, _nftId);\r\n        auction._timestamp.reset();\r\n        emit Cancel(_nftId, auction.seller);\r\n    }\r\n\r\n    modifier isExpired(uint _nftId) {\r\n      require(auctions[_nftId]._timestamp.isStarted(), \"You need to start first!\");\r\n      require(auctions[_nftId]._timestamp.isExpired(), \"Auction is still ongoing!\");\r\n      _;\r\n   }\r\n\r\n    modifier isPending(uint _nftId) {\r\n      require(auctions[_nftId]._timestamp.isStarted(), \"You need to start first!\");\r\n      require(auctions[_nftId]._timestamp.isPending(), \"Auction has already ended!\");\r\n      _;\r\n   }\r\n\r\n    modifier isNotPending(uint _nftId) {\r\n      require(!auctions[_nftId]._timestamp.isPending(), \"Auction is still ongoing!\");\r\n      _;\r\n   }\r\n\r\n    modifier isSeller(uint _nftId) {\r\n      require(auctions[_nftId].seller == msg.sender, \"Only owner can break an auction!\");\r\n      _;\r\n   }\r\n\r\n    modifier isNotSeller(uint _nftId) {\r\n      require(auctions[_nftId].seller != msg.sender, \"You can not bid as a NFT seller!\");\r\n      _;\r\n   }\r\n\r\n    modifier isNftOwner(uint _nftId) {\r\n      require(nft.ownerOf(_nftId) == msg.sender, \"Only owner can start an auction!\");\r\n      _;\r\n   }\r\n\r\n    modifier isBidder(uint _nftId) {\r\n      require(bids[_nftId][msg.sender] > 0, \"You did not bid in this auction!\");\r\n      _;\r\n   }\r\n\r\n    modifier isNotLeader(uint _nftId) {\r\n      require(auctions[_nftId].currentWinner != msg.sender, \"You can not withdraw as a current leader!\");\r\n      _;\r\n   }\r\n\r\n    modifier areNoBidders(uint _nftId) {\r\n      require(auctions[_nftId].currentWinner == address(0), \"You can not break when there is a bid!\");\r\n      _;\r\n   }\r\n}",
  "sourcePath": "E:\\Users\\adria\\Ether\\365days\\contracts\\Auctioner.sol",
  "compiler": {
    "name": "solc",
    "version": "0.8.1+commit.df193b15.Emscripten.clang"
  },
  "schemaVersion": "3.4.5",
  "updatedAt": "2022-03-04T18:51:21.342Z",
  "networkType": "ethereum",
  "devdoc": {
    "kind": "dev",
    "methods": {},
    "version": 1
  },
  "userdoc": {
    "kind": "user",
    "methods": {},
    "version": 1
  }
}