{
  "contractName": "Auctioner",
  "abi": [
    {
      "inputs": [
        {
          "internalType": "contract IERC721",
          "name": "_nft",
          "type": "address"
        }
      ],
      "stateMutability": "nonpayable",
      "type": "constructor"
    },
    {
      "anonymous": false,
      "inputs": [
        {
          "indexed": true,
          "internalType": "uint256",
          "name": "nftId",
          "type": "uint256"
        },
        {
          "indexed": true,
          "internalType": "address",
          "name": "sender",
          "type": "address"
        },
        {
          "indexed": false,
          "internalType": "uint256",
          "name": "amount",
          "type": "uint256"
        }
      ],
      "name": "Bid",
      "type": "event"
    },
    {
      "anonymous": false,
      "inputs": [
        {
          "indexed": false,
          "internalType": "uint256",
          "name": "nftId",
          "type": "uint256"
        },
        {
          "indexed": false,
          "internalType": "address",
          "name": "seller",
          "type": "address"
        }
      ],
      "name": "Cancel",
      "type": "event"
    },
    {
      "anonymous": false,
      "inputs": [
        {
          "indexed": false,
          "internalType": "uint256",
          "name": "nftId",
          "type": "uint256"
        },
        {
          "indexed": false,
          "internalType": "address",
          "name": "winner",
          "type": "address"
        },
        {
          "indexed": false,
          "internalType": "uint256",
          "name": "price",
          "type": "uint256"
        }
      ],
      "name": "End",
      "type": "event"
    },
    {
      "anonymous": false,
      "inputs": [
        {
          "indexed": false,
          "internalType": "uint256",
          "name": "nftId",
          "type": "uint256"
        },
        {
          "indexed": false,
          "internalType": "address",
          "name": "owner",
          "type": "address"
        },
        {
          "indexed": false,
          "internalType": "uint256",
          "name": "startAmount",
          "type": "uint256"
        }
      ],
      "name": "Start",
      "type": "event"
    },
    {
      "anonymous": false,
      "inputs": [
        {
          "indexed": true,
          "internalType": "uint256",
          "name": "nftId",
          "type": "uint256"
        },
        {
          "indexed": true,
          "internalType": "address",
          "name": "bidder",
          "type": "address"
        },
        {
          "indexed": false,
          "internalType": "uint256",
          "name": "amount",
          "type": "uint256"
        }
      ],
      "name": "Withdraw",
      "type": "event"
    },
    {
      "inputs": [],
      "name": "nft",
      "outputs": [
        {
          "internalType": "contract IERC721",
          "name": "",
          "type": "address"
        }
      ],
      "stateMutability": "view",
      "type": "function",
      "constant": true
    },
    {
      "inputs": [
        {
          "internalType": "uint256",
          "name": "_nftId",
          "type": "uint256"
        }
      ],
      "name": "getBid",
      "outputs": [
        {
          "internalType": "uint256",
          "name": "",
          "type": "uint256"
        }
      ],
      "stateMutability": "view",
      "type": "function",
      "constant": true
    },
    {
      "inputs": [
        {
          "internalType": "uint256",
          "name": "_nftId",
          "type": "uint256"
        }
      ],
      "name": "getAuction",
      "outputs": [
        {
          "internalType": "address",
          "name": "",
          "type": "address"
        },
        {
          "internalType": "uint256",
          "name": "",
          "type": "uint256"
        },
        {
          "internalType": "uint256",
          "name": "",
          "type": "uint256"
        },
        {
          "internalType": "address",
          "name": "",
          "type": "address"
        }
      ],
      "stateMutability": "view",
      "type": "function",
      "constant": true
    },
    {
      "inputs": [
        {
          "internalType": "uint256",
          "name": "_nftId",
          "type": "uint256"
        },
        {
          "internalType": "uint256",
          "name": "startAmount",
          "type": "uint256"
        },
        {
          "internalType": "uint64",
          "name": "daysDeadline",
          "type": "uint64"
        }
      ],
      "name": "start",
      "outputs": [],
      "stateMutability": "nonpayable",
      "type": "function"
    },
    {
      "inputs": [
        {
          "internalType": "uint256",
          "name": "_nftId",
          "type": "uint256"
        }
      ],
      "name": "bid",
      "outputs": [],
      "stateMutability": "payable",
      "type": "function",
      "payable": true
    },
    {
      "inputs": [
        {
          "internalType": "uint256",
          "name": "_nftId",
          "type": "uint256"
        }
      ],
      "name": "withdraw",
      "outputs": [],
      "stateMutability": "payable",
      "type": "function",
      "payable": true
    },
    {
      "inputs": [
        {
          "internalType": "uint256",
          "name": "_nftId",
          "type": "uint256"
        }
      ],
      "name": "end",
      "outputs": [],
      "stateMutability": "nonpayable",
      "type": "function"
    },
    {
      "inputs": [
        {
          "internalType": "uint256",
          "name": "_nftId",
          "type": "uint256"
        }
      ],
      "name": "cancel",
      "outputs": [],
      "stateMutability": "nonpayable",
      "type": "function"
    }
  ],
  "bytecode": "0x60806040523480156200001157600080fd5b506040516200242238038062002422833981810160405281019062000037919062000095565b806000806101000a81548173ffffffffffffffffffffffffffffffffffffffff021916908373ffffffffffffffffffffffffffffffffffffffff1602179055505062000123565b6000815190506200008f8162000109565b92915050565b600060208284031215620000a857600080fd5b6000620000b8848285016200007e565b91505092915050565b6000620000ce82620000e9565b9050919050565b6000620000e282620000c1565b9050919050565b600073ffffffffffffffffffffffffffffffffffffffff82169050919050565b6200011481620000d5565b81146200012057600080fd5b50565b6122ef80620001336000396000f3fe60806040526004361061007b5760003560e01c8063454a2ab31161004e578063454a2ab31461012b57806347ccca021461014757806378bd793514610172578063ab58ed90146101b25761007b565b80630ad24528146100805780632e1a7d4d146100a95780633c889e6f146100c557806340e58ee514610102575b600080fd5b34801561008c57600080fd5b506100a760048036038101906100a29190611985565b6101db565b005b6100c360048036038101906100be9190611985565b61070b565b005b3480156100d157600080fd5b506100ec60048036038101906100e79190611985565b6109f2565b6040516100f991906120a2565b60405180910390f35b34801561010e57600080fd5b5061012960048036038101906101249190611985565b610a4c565b005b61014560048036038101906101409190611985565b610e06565b005b34801561015357600080fd5b5061015c6111dd565b6040516101699190611ec7565b60405180910390f35b34801561017e57600080fd5b5061019960048036038101906101949190611985565b611201565b6040516101a99493929190611e82565b60405180910390f35b3480156101be57600080fd5b506101d960048036038101906101d491906119ae565b61135e565b005b80610237600260008381526020019081526020016000206001016040518060200160405290816000820160009054906101000a900467ffffffffffffffff1667ffffffffffffffff1667ffffffffffffffff1681525050611851565b610276576040517f08c379a000000000000000000000000000000000000000000000000000000000815260040161026d90611fe2565b60405180910390fd5b6102d1600260008381526020019081526020016000206001016040518060200160405290816000820160009054906101000a900467ffffffffffffffff1667ffffffffffffffff1667ffffffffffffffff168152505061186b565b610310576040517f08c379a000000000000000000000000000000000000000000000000000000000815260040161030790611f42565b60405180910390fd5b6000600260008481526020019081526020016000209050600073ffffffffffffffffffffffffffffffffffffffff168160030160009054906101000a900473ffffffffffffffffffffffffffffffffffffffff1673ffffffffffffffffffffffffffffffffffffffff16146105e95760008054906101000a900473ffffffffffffffffffffffffffffffffffffffff1673ffffffffffffffffffffffffffffffffffffffff166323b872dd308360030160009054906101000a900473ffffffffffffffffffffffffffffffffffffffff16866040518463ffffffff1660e01b815260040161040093929190611e4b565b600060405180830381600087803b15801561041a57600080fd5b505af115801561042e573d6000803e3d6000fd5b5050505060006001600085815260200190815260200160002060008360030160009054906101000a900473ffffffffffffffffffffffffffffffffffffffff1673ffffffffffffffffffffffffffffffffffffffff1673ffffffffffffffffffffffffffffffffffffffff1681526020019081526020016000208190555060008160000160009054906101000a900473ffffffffffffffffffffffffffffffffffffffff1673ffffffffffffffffffffffffffffffffffffffff1682600201546040516104fa90611e36565b60006040518083038185875af1925050503d8060008114610537576040519150601f19603f3d011682016040523d82523d6000602084013e61053c565b606091505b5050905080610580576040517f08c379a000000000000000000000000000000000000000000000000000000000815260040161057790611fc2565b60405180910390fd5b7fad71bc980e1f9155e488acf543cc5276beae185d612505ea3eaff929e4fe37f0848360030160009054906101000a900473ffffffffffffffffffffffffffffffffffffffff1684600201546040516105db939291906120e6565b60405180910390a1506106fa565b60008054906101000a900473ffffffffffffffffffffffffffffffffffffffff1673ffffffffffffffffffffffffffffffffffffffff166323b872dd308360000160009054906101000a900473ffffffffffffffffffffffffffffffffffffffff16866040518463ffffffff1660e01b815260040161066a93929190611e4b565b600060405180830381600087803b15801561068457600080fd5b505af1158015610698573d6000803e3d6000fd5b505050507f8dd3c361eb2366ff27c2db0eb07b9261f1d052570742ab8c9a0c326f37aa576d838260000160009054906101000a900473ffffffffffffffffffffffffffffffffffffffff166040516106f19291906120bd565b60405180910390a15b61070681600101611897565b505050565b8060006001600083815260200190815260200160002060003373ffffffffffffffffffffffffffffffffffffffff1673ffffffffffffffffffffffffffffffffffffffff168152602001908152602001600020541161079f576040517f08c379a000000000000000000000000000000000000000000000000000000000815260040161079690612002565b60405180910390fd5b813373ffffffffffffffffffffffffffffffffffffffff166002600083815260200190815260200160002060030160009054906101000a900473ffffffffffffffffffffffffffffffffffffffff1673ffffffffffffffffffffffffffffffffffffffff161415610845576040517f08c379a000000000000000000000000000000000000000000000000000000000815260040161083c90612042565b60405180910390fd5b60006001600085815260200190815260200160002060003373ffffffffffffffffffffffffffffffffffffffff1673ffffffffffffffffffffffffffffffffffffffff16815260200190815260200160002054905060006001600086815260200190815260200160002060003373ffffffffffffffffffffffffffffffffffffffff1673ffffffffffffffffffffffffffffffffffffffff1681526020019081526020016000208190555060003373ffffffffffffffffffffffffffffffffffffffff168260405161091690611e36565b60006040518083038185875af1925050503d8060008114610953576040519150601f19603f3d011682016040523d82523d6000602084013e610958565b606091505b505090508061099c576040517f08c379a000000000000000000000000000000000000000000000000000000000815260040161099390612082565b60405180910390fd5b3373ffffffffffffffffffffffffffffffffffffffff16857f9da6493a92039daf47d1f2d7a782299c5994c6323eb1e972f69c432089ec52bf846040516109e391906120a2565b60405180910390a35050505050565b60006001600083815260200190815260200160002060003373ffffffffffffffffffffffffffffffffffffffff1673ffffffffffffffffffffffffffffffffffffffff168152602001908152602001600020549050919050565b80610aa8600260008381526020019081526020016000206001016040518060200160405290816000820160009054906101000a900467ffffffffffffffff1667ffffffffffffffff1667ffffffffffffffff1681525050611851565b610ae7576040517f08c379a0000000000000000000000000000000000000000000000000000000008152600401610ade90611fe2565b60405180910390fd5b610b42600260008381526020019081526020016000206001016040518060200160405290816000820160009054906101000a900467ffffffffffffffff1667ffffffffffffffff1667ffffffffffffffff16815250506118c6565b610b81576040517f08c379a0000000000000000000000000000000000000000000000000000000008152600401610b7890612062565b60405180910390fd5b81600073ffffffffffffffffffffffffffffffffffffffff166002600083815260200190815260200160002060030160009054906101000a900473ffffffffffffffffffffffffffffffffffffffff1673ffffffffffffffffffffffffffffffffffffffff1614610c27576040517f08c379a0000000000000000000000000000000000000000000000000000000008152600401610c1e90611fa2565b60405180910390fd5b823373ffffffffffffffffffffffffffffffffffffffff166002600083815260200190815260200160002060000160009054906101000a900473ffffffffffffffffffffffffffffffffffffffff1673ffffffffffffffffffffffffffffffffffffffff1614610ccc576040517f08c379a0000000000000000000000000000000000000000000000000000000008152600401610cc390611f82565b60405180910390fd5b600060026000868152602001908152602001600020905060008054906101000a900473ffffffffffffffffffffffffffffffffffffffff1673ffffffffffffffffffffffffffffffffffffffff166323b872dd308360000160009054906101000a900473ffffffffffffffffffffffffffffffffffffffff16886040518463ffffffff1660e01b8152600401610d6493929190611e4b565b600060405180830381600087803b158015610d7e57600080fd5b505af1158015610d92573d6000803e3d6000fd5b50505050610da281600101611897565b7f8dd3c361eb2366ff27c2db0eb07b9261f1d052570742ab8c9a0c326f37aa576d858260000160009054906101000a900473ffffffffffffffffffffffffffffffffffffffff16604051610df79291906120bd565b60405180910390a15050505050565b80610e62600260008381526020019081526020016000206001016040518060200160405290816000820160009054906101000a900467ffffffffffffffff1667ffffffffffffffff1667ffffffffffffffff1681525050611851565b610ea1576040517f08c379a0000000000000000000000000000000000000000000000000000000008152600401610e9890611fe2565b60405180910390fd5b610efc600260008381526020019081526020016000206001016040518060200160405290816000820160009054906101000a900467ffffffffffffffff1667ffffffffffffffff1667ffffffffffffffff16815250506118c6565b610f3b576040517f08c379a0000000000000000000000000000000000000000000000000000000008152600401610f3290612062565b60405180910390fd5b813373ffffffffffffffffffffffffffffffffffffffff166002600083815260200190815260200160002060000160009054906101000a900473ffffffffffffffffffffffffffffffffffffffff1673ffffffffffffffffffffffffffffffffffffffff161415610fe1576040517f08c379a0000000000000000000000000000000000000000000000000000000008152600401610fd890611ee2565b60405180910390fd5b60006002600085815260200190815260200160002090506000346001600087815260200190815260200160002060003373ffffffffffffffffffffffffffffffffffffffff1673ffffffffffffffffffffffffffffffffffffffff168152602001908152602001600020546110569190612139565b90508160020154811161109e576040517f08c379a000000000000000000000000000000000000000000000000000000000815260040161109590612022565b60405180910390fd5b338260030160006101000a81548173ffffffffffffffffffffffffffffffffffffffff021916908373ffffffffffffffffffffffffffffffffffffffff160217905550808260020181905550806001600087815260200190815260200160002060008460030160009054906101000a900473ffffffffffffffffffffffffffffffffffffffff1673ffffffffffffffffffffffffffffffffffffffff1673ffffffffffffffffffffffffffffffffffffffff168152602001908152602001600020819055508160030160009054906101000a900473ffffffffffffffffffffffffffffffffffffffff1673ffffffffffffffffffffffffffffffffffffffff16857fdcd726e11f8b5e160f00290f0fe3a1abb547474e53a8e7a8f49a85e7b1ca3199836040516111ce91906120a2565b60405180910390a35050505050565b60008054906101000a900473ffffffffffffffffffffffffffffffffffffffff1681565b6000806000806000600260008781526020019081526020016000206040518060800160405290816000820160009054906101000a900473ffffffffffffffffffffffffffffffffffffffff1673ffffffffffffffffffffffffffffffffffffffff1673ffffffffffffffffffffffffffffffffffffffff168152602001600182016040518060200160405290816000820160009054906101000a900467ffffffffffffffff1667ffffffffffffffff1667ffffffffffffffff16815250508152602001600282015481526020016003820160009054906101000a900473ffffffffffffffffffffffffffffffffffffffff1673ffffffffffffffffffffffffffffffffffffffff1673ffffffffffffffffffffffffffffffffffffffff16815250509050806000015161133782602001516118e0565b826040015183606001518267ffffffffffffffff1692509450945094509450509193509193565b826113ba600260008381526020019081526020016000206001016040518060200160405290816000820160009054906101000a900467ffffffffffffffff1667ffffffffffffffff1667ffffffffffffffff16815250506118c6565b156113fa576040517f08c379a00000000000000000000000000000000000000000000000000000000081526004016113f190611f42565b60405180910390fd5b833373ffffffffffffffffffffffffffffffffffffffff1660008054906101000a900473ffffffffffffffffffffffffffffffffffffffff1673ffffffffffffffffffffffffffffffffffffffff16636352211e836040518263ffffffff1660e01b815260040161146b91906120a2565b60206040518083038186803b15801561148357600080fd5b505afa158015611497573d6000803e3d6000fd5b505050506040513d601f19601f820116820180604052508101906114bb919061195c565b73ffffffffffffffffffffffffffffffffffffffff1614611511576040517f08c379a000000000000000000000000000000000000000000000000000000000815260040161150890611f22565b60405180910390fd5b60008411611554576040517f08c379a000000000000000000000000000000000000000000000000000000000815260040161154b90611f62565b60405180910390fd5b60038367ffffffffffffffff161015801561157a5750603c8367ffffffffffffffff1611155b6115b9576040517f08c379a00000000000000000000000000000000000000000000000000000000081526004016115b090611f02565b60405180910390fd5b600060026000878152602001908152602001600020905061160962015180856115e2919061218f565b67ffffffffffffffff16426115f79190612139565b826001016118ee90919063ffffffff16565b60405180608001604052803373ffffffffffffffffffffffffffffffffffffffff168152602001826001016040518060200160405290816000820160009054906101000a900467ffffffffffffffff1667ffffffffffffffff1667ffffffffffffffff16815250508152602001868152602001600073ffffffffffffffffffffffffffffffffffffffff168152506002600088815260200190815260200160002060008201518160000160006101000a81548173ffffffffffffffffffffffffffffffffffffffff021916908373ffffffffffffffffffffffffffffffffffffffff16021790555060208201518160010160008201518160000160006101000a81548167ffffffffffffffff021916908367ffffffffffffffff16021790555050506040820151816002015560608201518160030160006101000a81548173ffffffffffffffffffffffffffffffffffffffff021916908373ffffffffffffffffffffffffffffffffffffffff16021790555090505060008054906101000a900473ffffffffffffffffffffffffffffffffffffffff1673ffffffffffffffffffffffffffffffffffffffff166323b872dd3330896040518463ffffffff1660e01b81526004016117dc93929190611e4b565b600060405180830381600087803b1580156117f657600080fd5b505af115801561180a573d6000803e3d6000fd5b505050507fde4164eea942dd001cdc898565cb8b2d25861c322c3c1e695630687d11036f15863387604051611841939291906120e6565b60405180910390a1505050505050565b600080826000015167ffffffffffffffff16119050919050565b600061187682611851565b8015611890575042826000015167ffffffffffffffff1611155b9050919050565b60008160000160006101000a81548167ffffffffffffffff021916908367ffffffffffffffff16021790555050565b600042826000015167ffffffffffffffff16119050919050565b600081600001519050919050565b808260000160006101000a81548167ffffffffffffffff021916908367ffffffffffffffff1602179055505050565b60008151905061192c81612274565b92915050565b6000813590506119418161228b565b92915050565b600081359050611956816122a2565b92915050565b60006020828403121561196e57600080fd5b600061197c8482850161191d565b91505092915050565b60006020828403121561199757600080fd5b60006119a584828501611932565b91505092915050565b6000806000606084860312156119c357600080fd5b60006119d186828701611932565b93505060206119e286828701611932565b92505060406119f386828701611947565b9150509250925092565b611a06816121d1565b82525050565b611a1581612221565b82525050565b6000611a28602083612128565b91507f596f752063616e206e6f74206269642061732061204e46542073656c6c6572216000830152602082019050919050565b6000611a68602e83612128565b91507f41756374696f6e20646561646c696e65206861766520746f2062652066726f6d60008301527f203320746f2036302064617973210000000000000000000000000000000000006020830152604082019050919050565b6000611ace602083612128565b91507f4f6e6c79206f776e65722063616e20737461727420616e2061756374696f6e216000830152602082019050919050565b6000611b0e601983612128565b91507f41756374696f6e206973207374696c6c206f6e676f696e6721000000000000006000830152602082019050919050565b6000611b4e601b83612128565b91507f5374617274696e6720616d6f756e7420697320746f6f206c6f772100000000006000830152602082019050919050565b6000611b8e602083612128565b91507f4f6e6c79206f776e65722063616e20627265616b20616e2061756374696f6e216000830152602082019050919050565b6000611bce602683612128565b91507f596f752063616e206e6f7420627265616b207768656e2074686572652069732060008301527f61206269642100000000000000000000000000000000000000000000000000006020830152604082019050919050565b6000611c34601583612128565b91507f436f756c64206e6f74207061792073656c6c65722100000000000000000000006000830152602082019050919050565b6000611c74601883612128565b91507f596f75206e65656420746f2073746172742066697273742100000000000000006000830152602082019050919050565b6000611cb4602083612128565b91507f596f7520646964206e6f742062696420696e20746869732061756374696f6e216000830152602082019050919050565b6000611cf4601583612128565b91507f4269642076616c756520697320746f6f206c6f772100000000000000000000006000830152602082019050919050565b6000611d34602983612128565b91507f596f752063616e206e6f7420776974686472617720617320612063757272656e60008301527f74206c65616465722100000000000000000000000000000000000000000000006020830152604082019050919050565b6000611d9a60008361211d565b9150600082019050919050565b6000611db4601a83612128565b91507f41756374696f6e2068617320616c726561647920656e646564210000000000006000830152602082019050919050565b6000611df4601283612128565b91507f436f756c64206e6f7420776974686472617700000000000000000000000000006000830152602082019050919050565b611e3081612203565b82525050565b6000611e4182611d8d565b9150819050919050565b6000606082019050611e6060008301866119fd565b611e6d60208301856119fd565b611e7a6040830184611e27565b949350505050565b6000608082019050611e9760008301876119fd565b611ea46020830186611e27565b611eb16040830185611e27565b611ebe60608301846119fd565b95945050505050565b6000602082019050611edc6000830184611a0c565b92915050565b60006020820190508181036000830152611efb81611a1b565b9050919050565b60006020820190508181036000830152611f1b81611a5b565b9050919050565b60006020820190508181036000830152611f3b81611ac1565b9050919050565b60006020820190508181036000830152611f5b81611b01565b9050919050565b60006020820190508181036000830152611f7b81611b41565b9050919050565b60006020820190508181036000830152611f9b81611b81565b9050919050565b60006020820190508181036000830152611fbb81611bc1565b9050919050565b60006020820190508181036000830152611fdb81611c27565b9050919050565b60006020820190508181036000830152611ffb81611c67565b9050919050565b6000602082019050818103600083015261201b81611ca7565b9050919050565b6000602082019050818103600083015261203b81611ce7565b9050919050565b6000602082019050818103600083015261205b81611d27565b9050919050565b6000602082019050818103600083015261207b81611da7565b9050919050565b6000602082019050818103600083015261209b81611de7565b9050919050565b60006020820190506120b76000830184611e27565b92915050565b60006040820190506120d26000830185611e27565b6120df60208301846119fd565b9392505050565b60006060820190506120fb6000830186611e27565b61210860208301856119fd565b6121156040830184611e27565b949350505050565b600081905092915050565b600082825260208201905092915050565b600061214482612203565b915061214f83612203565b9250827fffffffffffffffffffffffffffffffffffffffffffffffffffffffffffffffff0382111561218457612183612245565b5b828201905092915050565b600061219a8261220d565b91506121a58361220d565b92508167ffffffffffffffff04831182151516156121c6576121c5612245565b5b828202905092915050565b60006121dc826121e3565b9050919050565b600073ffffffffffffffffffffffffffffffffffffffff82169050919050565b6000819050919050565b600067ffffffffffffffff82169050919050565b600061222c82612233565b9050919050565b600061223e826121e3565b9050919050565b7f4e487b7100000000000000000000000000000000000000000000000000000000600052601160045260246000fd5b61227d816121d1565b811461228857600080fd5b50565b61229481612203565b811461229f57600080fd5b50565b6122ab8161220d565b81146122b657600080fd5b5056fea2646970667358221220e9650c36195105ae21d54f7d1620b6975c77586a1bed125261a93f90c4eb12aa64736f6c63430008000033",
  "immutableReferences": {},
  "source": "// contracts/Days365.sol\r\n// SPDX-License-Identifier: MIT\r\npragma solidity ^0.8.0;\r\n\r\nimport \"@openzeppelin/contracts/utils/Timers.sol\";\r\nimport \"@openzeppelin/contracts/token/ERC721/IERC721.sol\";\r\n\r\n\r\ncontract Auctioner {\r\n    using Timers for Timers.Timestamp;\r\n\r\n    event Start(uint nftId, address owner, uint startAmount);\r\n    event End(uint nftId, address winner, uint price);\r\n    event Cancel(uint nftId, address seller);\r\n    event Bid(uint indexed nftId, address indexed sender, uint amount);\r\n    event Withdraw(uint indexed nftId, address indexed bidder, uint amount);\r\n\r\n    IERC721 public nft;\r\n\r\n    struct Auction {\r\n        address seller;\r\n        Timers.Timestamp _timestamp;\r\n        uint currentBid;\r\n        address currentWinner;\r\n    }\r\n\r\n    mapping(uint => mapping(address => uint)) bids;\r\n    mapping(uint => Auction) internal auctions;\r\n\r\n    constructor (IERC721 _nft)\r\n    {\r\n        nft = _nft;\r\n    }\r\n\r\n    function getBid(uint _nftId) public view returns(uint) {\r\n        return bids[_nftId][msg.sender];\r\n    }\r\n\r\n    function getAuction(uint _nftId) public view returns(address, uint, uint, address) {\r\n        Auction memory auction = auctions[_nftId];\r\n        return (\r\n            auction.seller, \r\n            auction._timestamp.getDeadline(), \r\n            auction.currentBid, \r\n            auction.currentWinner\r\n        );\r\n    }\r\n\r\n    function start(uint _nftId, uint startAmount, uint64 daysDeadline) external isNotPending(_nftId) isNftOwner(_nftId) {\r\n        require(startAmount > 0, \"Starting amount is too low!\");\r\n        require(daysDeadline >= 3 && daysDeadline <= 60, \"Auction deadline have to be from 3 to 60 days!\");\r\n        Auction storage auction = auctions[_nftId];\r\n        auction._timestamp.setDeadline(uint64(block.timestamp + daysDeadline * 1 days));\r\n        auctions[_nftId] = Auction(\r\n            msg.sender,\r\n            auction._timestamp,\r\n            startAmount,\r\n            address(0)\r\n        );\r\n\r\n        nft.transferFrom(msg.sender, address(this), _nftId);\r\n        emit Start(_nftId, msg.sender, startAmount);\r\n    }\r\n\r\n    function bid(uint _nftId) external payable isPending(_nftId) isNotSeller(_nftId) {\r\n        Auction storage auction = auctions[_nftId];\r\n\r\n        uint bidValue = bids[_nftId][msg.sender] + msg.value;\r\n        require(bidValue > auction.currentBid, \"Bid value is too low!\");\r\n\r\n        auction.currentWinner = msg.sender;\r\n        auction.currentBid = bidValue;\r\n        bids[_nftId][auction.currentWinner] = bidValue;\r\n\r\n        emit Bid(_nftId, auction.currentWinner, bidValue);\r\n    }\r\n\r\n    function withdraw(uint _nftId) external payable isBidder(_nftId) isNotLeader(_nftId) {\r\n        uint amount = bids[_nftId][msg.sender];\r\n        bids[_nftId][msg.sender] = 0;\r\n        (bool sent, ) = payable(msg.sender).call{value: amount}(\"\");\r\n        require(sent, \"Could not withdraw\");\r\n        emit Withdraw(_nftId, msg.sender, amount);\r\n    }\r\n\r\n    function end(uint _nftId) external isExpired(_nftId) {\r\n        Auction storage auction = auctions[_nftId];\r\n\r\n        if (auction.currentWinner != address(0)) \r\n        {\r\n            nft.transferFrom(address(this), auction.currentWinner, _nftId);\r\n            bids[_nftId][auction.currentWinner] = 0;\r\n            (bool sent, ) = auction.seller.call{value: auction.currentBid}(\"\");\r\n            require(sent, \"Could not pay seller!\");\r\n            emit End(_nftId, auction.currentWinner, auction.currentBid);\r\n        } else \r\n        {\r\n            nft.transferFrom(address(this), auction.seller, _nftId);\r\n            emit Cancel(_nftId, auction.seller);\r\n        }\r\n\r\n        auction._timestamp.reset();\r\n    }\r\n\r\n    function cancel(uint _nftId) external isPending(_nftId) areNoBidders(_nftId) isSeller(_nftId) {\r\n        Auction storage auction = auctions[_nftId];\r\n        nft.transferFrom(address(this), auction.seller, _nftId);\r\n        auction._timestamp.reset();\r\n        emit Cancel(_nftId, auction.seller);\r\n    }\r\n\r\n    modifier isExpired(uint _nftId) {\r\n      require(auctions[_nftId]._timestamp.isStarted(), \"You need to start first!\");\r\n      require(auctions[_nftId]._timestamp.isExpired(), \"Auction is still ongoing!\");\r\n      _;\r\n   }\r\n\r\n    modifier isPending(uint _nftId) {\r\n      require(auctions[_nftId]._timestamp.isStarted(), \"You need to start first!\");\r\n      require(auctions[_nftId]._timestamp.isPending(), \"Auction has already ended!\");\r\n      _;\r\n   }\r\n\r\n    modifier isNotPending(uint _nftId) {\r\n      require(!auctions[_nftId]._timestamp.isPending(), \"Auction is still ongoing!\");\r\n      _;\r\n   }\r\n\r\n    modifier isSeller(uint _nftId) {\r\n      require(auctions[_nftId].seller == msg.sender, \"Only owner can break an auction!\");\r\n      _;\r\n   }\r\n\r\n    modifier isNotSeller(uint _nftId) {\r\n      require(auctions[_nftId].seller != msg.sender, \"You can not bid as a NFT seller!\");\r\n      _;\r\n   }\r\n\r\n    modifier isNftOwner(uint _nftId) {\r\n      require(nft.ownerOf(_nftId) == msg.sender, \"Only owner can start an auction!\");\r\n      _;\r\n   }\r\n\r\n    modifier isBidder(uint _nftId) {\r\n      require(bids[_nftId][msg.sender] > 0, \"You did not bid in this auction!\");\r\n      _;\r\n   }\r\n\r\n    modifier isNotLeader(uint _nftId) {\r\n      require(auctions[_nftId].currentWinner != msg.sender, \"You can not withdraw as a current leader!\");\r\n      _;\r\n   }\r\n\r\n    modifier areNoBidders(uint _nftId) {\r\n      require(auctions[_nftId].currentWinner == address(0), \"You can not break when there is a bid!\");\r\n      _;\r\n   }\r\n}",
  "sourcePath": "E:\\Users\\adria\\Ether\\365days\\contracts\\Auctioner.sol",
  "compiler": {
    "name": "solc",
    "version": "0.8.0+commit.c7dfd78e.Emscripten.clang"
  },
  "schemaVersion": "3.4.3",
  "updatedAt": "2022-02-05T16:49:12.658Z",
  "networkType": "ethereum",
  "devdoc": {
    "kind": "dev",
    "methods": {},
    "version": 1
  },
  "userdoc": {
    "kind": "user",
    "methods": {},
    "version": 1
  }
}