{
  "contractName": "Days365",
  "abi": [
    {
      "inputs": [],
      "stateMutability": "nonpayable",
      "type": "constructor"
    },
    {
      "anonymous": false,
      "inputs": [
        {
          "indexed": true,
          "internalType": "address",
          "name": "owner",
          "type": "address"
        },
        {
          "indexed": true,
          "internalType": "address",
          "name": "approved",
          "type": "address"
        },
        {
          "indexed": true,
          "internalType": "uint256",
          "name": "tokenId",
          "type": "uint256"
        }
      ],
      "name": "Approval",
      "type": "event"
    },
    {
      "anonymous": false,
      "inputs": [
        {
          "indexed": true,
          "internalType": "address",
          "name": "owner",
          "type": "address"
        },
        {
          "indexed": true,
          "internalType": "address",
          "name": "operator",
          "type": "address"
        },
        {
          "indexed": false,
          "internalType": "bool",
          "name": "approved",
          "type": "bool"
        }
      ],
      "name": "ApprovalForAll",
      "type": "event"
    },
    {
      "anonymous": false,
      "inputs": [
        {
          "indexed": true,
          "internalType": "address",
          "name": "previousOwner",
          "type": "address"
        },
        {
          "indexed": true,
          "internalType": "address",
          "name": "newOwner",
          "type": "address"
        }
      ],
      "name": "OwnershipTransferred",
      "type": "event"
    },
    {
      "anonymous": false,
      "inputs": [
        {
          "indexed": true,
          "internalType": "address",
          "name": "from",
          "type": "address"
        },
        {
          "indexed": true,
          "internalType": "address",
          "name": "to",
          "type": "address"
        },
        {
          "indexed": true,
          "internalType": "uint256",
          "name": "tokenId",
          "type": "uint256"
        }
      ],
      "name": "Transfer",
      "type": "event"
    },
    {
      "inputs": [
        {
          "internalType": "address",
          "name": "to",
          "type": "address"
        },
        {
          "internalType": "uint256",
          "name": "tokenId",
          "type": "uint256"
        }
      ],
      "name": "approve",
      "outputs": [],
      "stateMutability": "nonpayable",
      "type": "function"
    },
    {
      "inputs": [
        {
          "internalType": "address",
          "name": "owner",
          "type": "address"
        }
      ],
      "name": "balanceOf",
      "outputs": [
        {
          "internalType": "uint256",
          "name": "",
          "type": "uint256"
        }
      ],
      "stateMutability": "view",
      "type": "function",
      "constant": true
    },
    {
      "inputs": [
        {
          "internalType": "uint256",
          "name": "tokenId",
          "type": "uint256"
        }
      ],
      "name": "getApproved",
      "outputs": [
        {
          "internalType": "address",
          "name": "",
          "type": "address"
        }
      ],
      "stateMutability": "view",
      "type": "function",
      "constant": true
    },
    {
      "inputs": [
        {
          "internalType": "address",
          "name": "owner",
          "type": "address"
        },
        {
          "internalType": "address",
          "name": "operator",
          "type": "address"
        }
      ],
      "name": "isApprovedForAll",
      "outputs": [
        {
          "internalType": "bool",
          "name": "",
          "type": "bool"
        }
      ],
      "stateMutability": "view",
      "type": "function",
      "constant": true
    },
    {
      "inputs": [],
      "name": "maxSupply",
      "outputs": [
        {
          "internalType": "uint256",
          "name": "",
          "type": "uint256"
        }
      ],
      "stateMutability": "view",
      "type": "function",
      "constant": true
    },
    {
      "inputs": [],
      "name": "name",
      "outputs": [
        {
          "internalType": "string",
          "name": "",
          "type": "string"
        }
      ],
      "stateMutability": "view",
      "type": "function",
      "constant": true
    },
    {
      "inputs": [],
      "name": "owner",
      "outputs": [
        {
          "internalType": "address",
          "name": "",
          "type": "address"
        }
      ],
      "stateMutability": "view",
      "type": "function",
      "constant": true
    },
    {
      "inputs": [
        {
          "internalType": "uint256",
          "name": "tokenId",
          "type": "uint256"
        }
      ],
      "name": "ownerOf",
      "outputs": [
        {
          "internalType": "address",
          "name": "",
          "type": "address"
        }
      ],
      "stateMutability": "view",
      "type": "function",
      "constant": true
    },
    {
      "inputs": [],
      "name": "renounceOwnership",
      "outputs": [],
      "stateMutability": "nonpayable",
      "type": "function"
    },
    {
      "inputs": [
        {
          "internalType": "address",
          "name": "from",
          "type": "address"
        },
        {
          "internalType": "address",
          "name": "to",
          "type": "address"
        },
        {
          "internalType": "uint256",
          "name": "tokenId",
          "type": "uint256"
        }
      ],
      "name": "safeTransferFrom",
      "outputs": [],
      "stateMutability": "nonpayable",
      "type": "function"
    },
    {
      "inputs": [
        {
          "internalType": "address",
          "name": "from",
          "type": "address"
        },
        {
          "internalType": "address",
          "name": "to",
          "type": "address"
        },
        {
          "internalType": "uint256",
          "name": "tokenId",
          "type": "uint256"
        },
        {
          "internalType": "bytes",
          "name": "_data",
          "type": "bytes"
        }
      ],
      "name": "safeTransferFrom",
      "outputs": [],
      "stateMutability": "nonpayable",
      "type": "function"
    },
    {
      "inputs": [
        {
          "internalType": "address",
          "name": "operator",
          "type": "address"
        },
        {
          "internalType": "bool",
          "name": "approved",
          "type": "bool"
        }
      ],
      "name": "setApprovalForAll",
      "outputs": [],
      "stateMutability": "nonpayable",
      "type": "function"
    },
    {
      "inputs": [
        {
          "internalType": "bytes4",
          "name": "interfaceId",
          "type": "bytes4"
        }
      ],
      "name": "supportsInterface",
      "outputs": [
        {
          "internalType": "bool",
          "name": "",
          "type": "bool"
        }
      ],
      "stateMutability": "view",
      "type": "function",
      "constant": true
    },
    {
      "inputs": [],
      "name": "symbol",
      "outputs": [
        {
          "internalType": "string",
          "name": "",
          "type": "string"
        }
      ],
      "stateMutability": "view",
      "type": "function",
      "constant": true
    },
    {
      "inputs": [
        {
          "internalType": "uint256",
          "name": "tokenId",
          "type": "uint256"
        }
      ],
      "name": "tokenURI",
      "outputs": [
        {
          "internalType": "string",
          "name": "",
          "type": "string"
        }
      ],
      "stateMutability": "view",
      "type": "function",
      "constant": true
    },
    {
      "inputs": [
        {
          "internalType": "address",
          "name": "from",
          "type": "address"
        },
        {
          "internalType": "address",
          "name": "to",
          "type": "address"
        },
        {
          "internalType": "uint256",
          "name": "tokenId",
          "type": "uint256"
        }
      ],
      "name": "transferFrom",
      "outputs": [],
      "stateMutability": "nonpayable",
      "type": "function"
    },
    {
      "inputs": [
        {
          "internalType": "address",
          "name": "newOwner",
          "type": "address"
        }
      ],
      "name": "transferOwnership",
      "outputs": [],
      "stateMutability": "nonpayable",
      "type": "function"
    },
    {
      "inputs": [],
      "name": "currentFee",
      "outputs": [
        {
          "internalType": "uint256",
          "name": "",
          "type": "uint256"
        }
      ],
      "stateMutability": "view",
      "type": "function",
      "constant": true
    },
    {
      "inputs": [],
      "name": "tokensCount",
      "outputs": [
        {
          "internalType": "uint256",
          "name": "",
          "type": "uint256"
        }
      ],
      "stateMutability": "view",
      "type": "function",
      "constant": true
    },
    {
      "inputs": [
        {
          "internalType": "uint256",
          "name": "tokenId",
          "type": "uint256"
        },
        {
          "internalType": "string",
          "name": "_tokenURI",
          "type": "string"
        }
      ],
      "name": "setTokenURI",
      "outputs": [],
      "stateMutability": "nonpayable",
      "type": "function"
    },
    {
      "inputs": [
        {
          "internalType": "string",
          "name": "tokenURI",
          "type": "string"
        }
      ],
      "name": "mintToken",
      "outputs": [],
      "stateMutability": "payable",
      "type": "function",
      "payable": true
    }
  ],
  "bytecode": "0x60806040523480156200001157600080fd5b506040518060400160405280600781526020017f33363544617973000000000000000000000000000000000000000000000000008152506040518060400160405280600381526020017f4441590000000000000000000000000000000000000000000000000000000000815250816000908051906020019062000096929190620001bd565b508060019080519060200190620000af929190620001bd565b505050620000d2620000c6620000ef60201b60201c565b620000f760201b60201c565b6611c37937e0800060088190555061016d600a81905550620002d2565b600033905090565b6000600760009054906101000a900473ffffffffffffffffffffffffffffffffffffffff16905081600760006101000a81548173ffffffffffffffffffffffffffffffffffffffff021916908373ffffffffffffffffffffffffffffffffffffffff1602179055508173ffffffffffffffffffffffffffffffffffffffff168173ffffffffffffffffffffffffffffffffffffffff167f8be0079c531659141344cd1fd0a4f28419497f9722a3daafe3b4186f6b6457e060405160405180910390a35050565b828054620001cb906200026d565b90600052602060002090601f016020900481019282620001ef57600085556200023b565b82601f106200020a57805160ff19168380011785556200023b565b828001600101855582156200023b579182015b828111156200023a5782518255916020019190600101906200021d565b5b5090506200024a91906200024e565b5090565b5b80821115620002695760008160009055506001016200024f565b5090565b600060028204905060018216806200028657607f821691505b602082108114156200029d576200029c620002a3565b5b50919050565b7f4e487b7100000000000000000000000000000000000000000000000000000000600052602260045260246000fd5b61351980620002e26000396000f3fe60806040526004361061012a5760003560e01c8063715018a6116100ab578063b88d4fde1161006f578063b88d4fde146103cf578063c87b56dd146103f8578063d5abeb0114610435578063da3c300d14610460578063e985e9c51461048b578063f2fde38b146104c85761012a565b8063715018a61461030e5780638da5cb5b1461032557806395d89b4114610350578063a22cb4651461037b578063a64ed8ba146103a45761012a565b806323b872dd116100f257806323b872dd1461022657806333eba49a1461024f57806342842e0e1461026b5780636352211e1461029457806370a08231146102d15761012a565b806301ffc9a71461012f57806306fdde031461016c578063081812fc14610197578063095ea7b3146101d4578063162094c4146101fd575b600080fd5b34801561013b57600080fd5b50610156600480360381019061015191906122ac565b6104f1565b6040516101639190612d4c565b60405180910390f35b34801561017857600080fd5b506101816105d3565b60405161018e9190612d67565b60405180910390f35b3480156101a357600080fd5b506101be60048036038101906101b9919061233f565b610665565b6040516101cb9190612ce5565b60405180910390f35b3480156101e057600080fd5b506101fb60048036038101906101f69190612270565b6106ea565b005b34801561020957600080fd5b50610224600480360381019061021f9190612368565b610802565b005b34801561023257600080fd5b5061024d6004803603810190610248919061216a565b61088d565b005b610269600480360381019061026491906122fe565b6108ed565b005b34801561027757600080fd5b50610292600480360381019061028d919061216a565b610a6b565b005b3480156102a057600080fd5b506102bb60048036038101906102b6919061233f565b610a8b565b6040516102c89190612ce5565b60405180910390f35b3480156102dd57600080fd5b506102f860048036038101906102f39190612105565b610b3d565b6040516103059190613049565b60405180910390f35b34801561031a57600080fd5b50610323610bf5565b005b34801561033157600080fd5b5061033a610c7d565b6040516103479190612ce5565b60405180910390f35b34801561035c57600080fd5b50610365610ca7565b6040516103729190612d67565b60405180910390f35b34801561038757600080fd5b506103a2600480360381019061039d9190612234565b610d39565b005b3480156103b057600080fd5b506103b9610d4f565b6040516103c69190613049565b60405180910390f35b3480156103db57600080fd5b506103f660048036038101906103f191906121b9565b610d60565b005b34801561040457600080fd5b5061041f600480360381019061041a919061233f565b610dc2565b60405161042c9190612d67565b60405180910390f35b34801561044157600080fd5b5061044a610f14565b6040516104579190613049565b60405180910390f35b34801561046c57600080fd5b50610475610f1a565b6040516104829190613049565b60405180910390f35b34801561049757600080fd5b506104b260048036038101906104ad919061212e565b610f44565b6040516104bf9190612d4c565b60405180910390f35b3480156104d457600080fd5b506104ef60048036038101906104ea9190612105565b610fd8565b005b60007f80ac58cd000000000000000000000000000000000000000000000000000000007bffffffffffffffffffffffffffffffffffffffffffffffffffffffff1916827bffffffffffffffffffffffffffffffffffffffffffffffffffffffff191614806105bc57507f5b5e139f000000000000000000000000000000000000000000000000000000007bffffffffffffffffffffffffffffffffffffffffffffffffffffffff1916827bffffffffffffffffffffffffffffffffffffffffffffffffffffffff1916145b806105cc57506105cb826110d0565b5b9050919050565b6060600080546105e29061330e565b80601f016020809104026020016040519081016040528092919081815260200182805461060e9061330e565b801561065b5780601f106106305761010080835404028352916020019161065b565b820191906000526020600020905b81548152906001019060200180831161063e57829003601f168201915b5050505050905090565b60006106708261113a565b6106af576040517f08c379a00000000000000000000000000000000000000000000000000000000081526004016106a690612f29565b60405180910390fd5b6004600083815260200190815260200160002060009054906101000a900473ffffffffffffffffffffffffffffffffffffffff169050919050565b60006106f582610a8b565b90508073ffffffffffffffffffffffffffffffffffffffff168373ffffffffffffffffffffffffffffffffffffffff161415610766576040517f08c379a000000000000000000000000000000000000000000000000000000000815260040161075d90612fe9565b60405180910390fd5b8073ffffffffffffffffffffffffffffffffffffffff166107856111a6565b73ffffffffffffffffffffffffffffffffffffffff1614806107b457506107b3816107ae6111a6565b610f44565b5b6107f3576040517f08c379a00000000000000000000000000000000000000000000000000000000081526004016107ea90612e69565b60405180910390fd5b6107fd83836111ae565b505050565b61080a6111a6565b73ffffffffffffffffffffffffffffffffffffffff1661082983610a8b565b73ffffffffffffffffffffffffffffffffffffffff161461087f576040517f08c379a000000000000000000000000000000000000000000000000000000000815260040161087690612d89565b60405180910390fd5b6108898282611267565b5050565b61089e6108986111a6565b826112db565b6108dd576040517f08c379a00000000000000000000000000000000000000000000000000000000081526004016108d490613029565b60405180910390fd5b6108e88383836113b9565b505050565b6108f5610f1a565b341015610937576040517f08c379a000000000000000000000000000000000000000000000000000000000815260040161092e90613009565b60405180910390fd5b600a546109446009611615565b10610984576040517f08c379a000000000000000000000000000000000000000000000000000000000815260040161097b90612fc9565b60405180910390fd5b600061098e610c7d565b73ffffffffffffffffffffffffffffffffffffffff16346040516109b190612cd0565b60006040518083038185875af1925050503d80600081146109ee576040519150601f19603f3d011682016040523d82523d6000602084013e6109f3565b606091505b5050905080610a37576040517f08c379a0000000000000000000000000000000000000000000000000000000008152600401610a2e90612f49565b60405180910390fd5b610a416009611623565b610a5433610a4f6009611615565b611639565b610a67610a616009611615565b83611267565b5050565b610a8683838360405180602001604052806000815250610d60565b505050565b6000806002600084815260200190815260200160002060009054906101000a900473ffffffffffffffffffffffffffffffffffffffff169050600073ffffffffffffffffffffffffffffffffffffffff168173ffffffffffffffffffffffffffffffffffffffff161415610b34576040517f08c379a0000000000000000000000000000000000000000000000000000000008152600401610b2b90612ea9565b60405180910390fd5b80915050919050565b60008073ffffffffffffffffffffffffffffffffffffffff168273ffffffffffffffffffffffffffffffffffffffff161415610bae576040517f08c379a0000000000000000000000000000000000000000000000000000000008152600401610ba590612e89565b60405180910390fd5b600360008373ffffffffffffffffffffffffffffffffffffffff1673ffffffffffffffffffffffffffffffffffffffff168152602001908152602001600020549050919050565b610bfd6111a6565b73ffffffffffffffffffffffffffffffffffffffff16610c1b610c7d565b73ffffffffffffffffffffffffffffffffffffffff1614610c71576040517f08c379a0000000000000000000000000000000000000000000000000000000008152600401610c6890612f69565b60405180910390fd5b610c7b6000611657565b565b6000600760009054906101000a900473ffffffffffffffffffffffffffffffffffffffff16905090565b606060018054610cb69061330e565b80601f0160208091040260200160405190810160405280929190818152602001828054610ce29061330e565b8015610d2f5780601f10610d0457610100808354040283529160200191610d2f565b820191906000526020600020905b815481529060010190602001808311610d1257829003601f168201915b5050505050905090565b610d4b610d446111a6565b838361171d565b5050565b6000610d5b6009611615565b905090565b610d71610d6b6111a6565b836112db565b610db0576040517f08c379a0000000000000000000000000000000000000000000000000000000008152600401610da790613029565b60405180910390fd5b610dbc8484848461188a565b50505050565b6060610dcd8261113a565b610e0c576040517f08c379a0000000000000000000000000000000000000000000000000000000008152600401610e0390612f09565b60405180910390fd5b6000600660008481526020019081526020016000208054610e2c9061330e565b80601f0160208091040260200160405190810160405280929190818152602001828054610e589061330e565b8015610ea55780601f10610e7a57610100808354040283529160200191610ea5565b820191906000526020600020905b815481529060010190602001808311610e8857829003601f168201915b505050505090506000610eb66118e6565b9050600081511415610ecc578192505050610f0f565b600082511115610f01578082604051602001610ee9929190612cac565b60405160208183030381529060405292505050610f0f565b610f0a846118fd565b925050505b919050565b600a5481565b60006001610f286009611615565b610f329190613143565b600854610f3f91906131ca565b905090565b6000600560008473ffffffffffffffffffffffffffffffffffffffff1673ffffffffffffffffffffffffffffffffffffffff16815260200190815260200160002060008373ffffffffffffffffffffffffffffffffffffffff1673ffffffffffffffffffffffffffffffffffffffff16815260200190815260200160002060009054906101000a900460ff16905092915050565b610fe06111a6565b73ffffffffffffffffffffffffffffffffffffffff16610ffe610c7d565b73ffffffffffffffffffffffffffffffffffffffff1614611054576040517f08c379a000000000000000000000000000000000000000000000000000000000815260040161104b90612f69565b60405180910390fd5b600073ffffffffffffffffffffffffffffffffffffffff168173ffffffffffffffffffffffffffffffffffffffff1614156110c4576040517f08c379a00000000000000000000000000000000000000000000000000000000081526004016110bb90612dc9565b60405180910390fd5b6110cd81611657565b50565b60007f01ffc9a7000000000000000000000000000000000000000000000000000000007bffffffffffffffffffffffffffffffffffffffffffffffffffffffff1916827bffffffffffffffffffffffffffffffffffffffffffffffffffffffff1916149050919050565b60008073ffffffffffffffffffffffffffffffffffffffff166002600084815260200190815260200160002060009054906101000a900473ffffffffffffffffffffffffffffffffffffffff1673ffffffffffffffffffffffffffffffffffffffff1614159050919050565b600033905090565b816004600083815260200190815260200160002060006101000a81548173ffffffffffffffffffffffffffffffffffffffff021916908373ffffffffffffffffffffffffffffffffffffffff160217905550808273ffffffffffffffffffffffffffffffffffffffff1661122183610a8b565b73ffffffffffffffffffffffffffffffffffffffff167f8c5be1e5ebec7d5bd14f71427d1e84f3dd0314c0f7b2291e5b200ac8c7c3b92560405160405180910390a45050565b6112708261113a565b6112af576040517f08c379a00000000000000000000000000000000000000000000000000000000081526004016112a690612ec9565b60405180910390fd5b806006600084815260200190815260200160002090805190602001906112d6929190611f29565b505050565b60006112e68261113a565b611325576040517f08c379a000000000000000000000000000000000000000000000000000000000815260040161131c90612e49565b60405180910390fd5b600061133083610a8b565b90508073ffffffffffffffffffffffffffffffffffffffff168473ffffffffffffffffffffffffffffffffffffffff16148061139f57508373ffffffffffffffffffffffffffffffffffffffff1661138784610665565b73ffffffffffffffffffffffffffffffffffffffff16145b806113b057506113af8185610f44565b5b91505092915050565b8273ffffffffffffffffffffffffffffffffffffffff166113d982610a8b565b73ffffffffffffffffffffffffffffffffffffffff161461142f576040517f08c379a000000000000000000000000000000000000000000000000000000000815260040161142690612f89565b60405180910390fd5b600073ffffffffffffffffffffffffffffffffffffffff168273ffffffffffffffffffffffffffffffffffffffff16141561149f576040517f08c379a000000000000000000000000000000000000000000000000000000000815260040161149690612e09565b60405180910390fd5b6114aa8383836119a4565b6114b56000826111ae565b6001600360008573ffffffffffffffffffffffffffffffffffffffff1673ffffffffffffffffffffffffffffffffffffffff16815260200190815260200160002060008282546115059190613224565b925050819055506001600360008473ffffffffffffffffffffffffffffffffffffffff1673ffffffffffffffffffffffffffffffffffffffff168152602001908152602001600020600082825461155c9190613143565b92505081905550816002600083815260200190815260200160002060006101000a81548173ffffffffffffffffffffffffffffffffffffffff021916908373ffffffffffffffffffffffffffffffffffffffff160217905550808273ffffffffffffffffffffffffffffffffffffffff168473ffffffffffffffffffffffffffffffffffffffff167fddf252ad1be2c89b69c2b068fc378daa952ba7f163c4a11628f55a4df523b3ef60405160405180910390a4505050565b600081600001549050919050565b6001816000016000828254019250508190555050565b6116538282604051806020016040528060008152506119a9565b5050565b6000600760009054906101000a900473ffffffffffffffffffffffffffffffffffffffff16905081600760006101000a81548173ffffffffffffffffffffffffffffffffffffffff021916908373ffffffffffffffffffffffffffffffffffffffff1602179055508173ffffffffffffffffffffffffffffffffffffffff168173ffffffffffffffffffffffffffffffffffffffff167f8be0079c531659141344cd1fd0a4f28419497f9722a3daafe3b4186f6b6457e060405160405180910390a35050565b8173ffffffffffffffffffffffffffffffffffffffff168373ffffffffffffffffffffffffffffffffffffffff16141561178c576040517f08c379a000000000000000000000000000000000000000000000000000000000815260040161178390612e29565b60405180910390fd5b80600560008573ffffffffffffffffffffffffffffffffffffffff1673ffffffffffffffffffffffffffffffffffffffff16815260200190815260200160002060008473ffffffffffffffffffffffffffffffffffffffff1673ffffffffffffffffffffffffffffffffffffffff16815260200190815260200160002060006101000a81548160ff0219169083151502179055508173ffffffffffffffffffffffffffffffffffffffff168373ffffffffffffffffffffffffffffffffffffffff167f17307eab39ab6107e8899845ad3d59bd9653f200f220920489ca2b5937696c318360405161187d9190612d4c565b60405180910390a3505050565b6118958484846113b9565b6118a184848484611a04565b6118e0576040517f08c379a00000000000000000000000000000000000000000000000000000000081526004016118d790612da9565b60405180910390fd5b50505050565b606060405180602001604052806000815250905090565b60606119088261113a565b611947576040517f08c379a000000000000000000000000000000000000000000000000000000000815260040161193e90612fa9565b60405180910390fd5b60006119516118e6565b90506000815111611971576040518060200160405280600081525061199c565b8061197b84611b9b565b60405160200161198c929190612cac565b6040516020818303038152906040525b915050919050565b505050565b6119b38383611d48565b6119c06000848484611a04565b6119ff576040517f08c379a00000000000000000000000000000000000000000000000000000000081526004016119f690612da9565b60405180910390fd5b505050565b6000611a258473ffffffffffffffffffffffffffffffffffffffff16611f16565b15611b8e578373ffffffffffffffffffffffffffffffffffffffff1663150b7a02611a4e6111a6565b8786866040518563ffffffff1660e01b8152600401611a709493929190612d00565b602060405180830381600087803b158015611a8a57600080fd5b505af1925050508015611abb57506040513d601f19601f82011682018060405250810190611ab891906122d5565b60015b611b3e573d8060008114611aeb576040519150601f19603f3d011682016040523d82523d6000602084013e611af0565b606091505b50600081511415611b36576040517f08c379a0000000000000000000000000000000000000000000000000000000008152600401611b2d90612da9565b60405180910390fd5b805181602001fd5b63150b7a0260e01b7bffffffffffffffffffffffffffffffffffffffffffffffffffffffff1916817bffffffffffffffffffffffffffffffffffffffffffffffffffffffff191614915050611b93565b600190505b949350505050565b60606000821415611be3576040518060400160405280600181526020017f30000000000000000000000000000000000000000000000000000000000000008152509050611d43565b600082905060005b60008214611c15578080611bfe90613340565b915050600a82611c0e9190613199565b9150611beb565b60008167ffffffffffffffff811115611c57577f4e487b7100000000000000000000000000000000000000000000000000000000600052604160045260246000fd5b6040519080825280601f01601f191660200182016040528015611c895781602001600182028036833780820191505090505b5090505b60008514611d3c57600182611ca29190613224565b9150600a85611cb19190613389565b6030611cbd9190613143565b60f81b818381518110611cf9577f4e487b7100000000000000000000000000000000000000000000000000000000600052603260045260246000fd5b60200101907effffffffffffffffffffffffffffffffffffffffffffffffffffffffffffff1916908160001a905350600a85611d359190613199565b9450611c8d565b8093505050505b919050565b600073ffffffffffffffffffffffffffffffffffffffff168273ffffffffffffffffffffffffffffffffffffffff161415611db8576040517f08c379a0000000000000000000000000000000000000000000000000000000008152600401611daf90612ee9565b60405180910390fd5b611dc18161113a565b15611e01576040517f08c379a0000000000000000000000000000000000000000000000000000000008152600401611df890612de9565b60405180910390fd5b611e0d600083836119a4565b6001600360008473ffffffffffffffffffffffffffffffffffffffff1673ffffffffffffffffffffffffffffffffffffffff1681526020019081526020016000206000828254611e5d9190613143565b92505081905550816002600083815260200190815260200160002060006101000a81548173ffffffffffffffffffffffffffffffffffffffff021916908373ffffffffffffffffffffffffffffffffffffffff160217905550808273ffffffffffffffffffffffffffffffffffffffff16600073ffffffffffffffffffffffffffffffffffffffff167fddf252ad1be2c89b69c2b068fc378daa952ba7f163c4a11628f55a4df523b3ef60405160405180910390a45050565b600080823b905060008111915050919050565b828054611f359061330e565b90600052602060002090601f016020900481019282611f575760008555611f9e565b82601f10611f7057805160ff1916838001178555611f9e565b82800160010185558215611f9e579182015b82811115611f9d578251825591602001919060010190611f82565b5b509050611fab9190611faf565b5090565b5b80821115611fc8576000816000905550600101611fb0565b5090565b6000611fdf611fda84613095565b613064565b905082815260208101848484011115611ff757600080fd5b6120028482856132cc565b509392505050565b600061201d612018846130c5565b613064565b90508281526020810184848401111561203557600080fd5b6120408482856132cc565b509392505050565b60008135905061205781613487565b92915050565b60008135905061206c8161349e565b92915050565b600081359050612081816134b5565b92915050565b600081519050612096816134b5565b92915050565b600082601f8301126120ad57600080fd5b81356120bd848260208601611fcc565b91505092915050565b600082601f8301126120d757600080fd5b81356120e784826020860161200a565b91505092915050565b6000813590506120ff816134cc565b92915050565b60006020828403121561211757600080fd5b600061212584828501612048565b91505092915050565b6000806040838503121561214157600080fd5b600061214f85828601612048565b925050602061216085828601612048565b9150509250929050565b60008060006060848603121561217f57600080fd5b600061218d86828701612048565b935050602061219e86828701612048565b92505060406121af868287016120f0565b9150509250925092565b600080600080608085870312156121cf57600080fd5b60006121dd87828801612048565b94505060206121ee87828801612048565b93505060406121ff878288016120f0565b925050606085013567ffffffffffffffff81111561221c57600080fd5b6122288782880161209c565b91505092959194509250565b6000806040838503121561224757600080fd5b600061225585828601612048565b92505060206122668582860161205d565b9150509250929050565b6000806040838503121561228357600080fd5b600061229185828601612048565b92505060206122a2858286016120f0565b9150509250929050565b6000602082840312156122be57600080fd5b60006122cc84828501612072565b91505092915050565b6000602082840312156122e757600080fd5b60006122f584828501612087565b91505092915050565b60006020828403121561231057600080fd5b600082013567ffffffffffffffff81111561232a57600080fd5b612336848285016120c6565b91505092915050565b60006020828403121561235157600080fd5b600061235f848285016120f0565b91505092915050565b6000806040838503121561237b57600080fd5b6000612389858286016120f0565b925050602083013567ffffffffffffffff8111156123a657600080fd5b6123b2858286016120c6565b9150509250929050565b6123c581613258565b82525050565b6123d48161326a565b82525050565b60006123e5826130f5565b6123ef818561310b565b93506123ff8185602086016132db565b61240881613476565b840191505092915050565b600061241e82613100565b6124288185613127565b93506124388185602086016132db565b61244181613476565b840191505092915050565b600061245782613100565b6124618185613138565b93506124718185602086016132db565b80840191505092915050565b600061248a602383613127565b91507f4f6e6c79206f776e65722063616e2073656e742061206e657720746f6b656e2060008301527f55524900000000000000000000000000000000000000000000000000000000006020830152604082019050919050565b60006124f0603283613127565b91507f4552433732313a207472616e7366657220746f206e6f6e20455243373231526560008301527f63656976657220696d706c656d656e74657200000000000000000000000000006020830152604082019050919050565b6000612556602683613127565b91507f4f776e61626c653a206e6577206f776e657220697320746865207a65726f206160008301527f64647265737300000000000000000000000000000000000000000000000000006020830152604082019050919050565b60006125bc601c83613127565b91507f4552433732313a20746f6b656e20616c7265616479206d696e746564000000006000830152602082019050919050565b60006125fc602483613127565b91507f4552433732313a207472616e7366657220746f20746865207a65726f2061646460008301527f72657373000000000000000000000000000000000000000000000000000000006020830152604082019050919050565b6000612662601983613127565b91507f4552433732313a20617070726f766520746f2063616c6c6572000000000000006000830152602082019050919050565b60006126a2602c83613127565b91507f4552433732313a206f70657261746f7220717565727920666f72206e6f6e657860008301527f697374656e7420746f6b656e00000000000000000000000000000000000000006020830152604082019050919050565b6000612708603883613127565b91507f4552433732313a20617070726f76652063616c6c6572206973206e6f74206f7760008301527f6e6572206e6f7220617070726f76656420666f7220616c6c00000000000000006020830152604082019050919050565b600061276e602a83613127565b91507f4552433732313a2062616c616e636520717565727920666f7220746865207a6560008301527f726f2061646472657373000000000000000000000000000000000000000000006020830152604082019050919050565b60006127d4602983613127565b91507f4552433732313a206f776e657220717565727920666f72206e6f6e657869737460008301527f656e7420746f6b656e00000000000000000000000000000000000000000000006020830152604082019050919050565b600061283a602e83613127565b91507f45524337323155524953746f726167653a2055524920736574206f66206e6f6e60008301527f6578697374656e7420746f6b656e0000000000000000000000000000000000006020830152604082019050919050565b60006128a0602083613127565b91507f4552433732313a206d696e7420746f20746865207a65726f20616464726573736000830152602082019050919050565b60006128e0603183613127565b91507f45524337323155524953746f726167653a2055524920717565727920666f722060008301527f6e6f6e6578697374656e7420746f6b656e0000000000000000000000000000006020830152604082019050919050565b6000612946602c83613127565b91507f4552433732313a20617070726f76656420717565727920666f72206e6f6e657860008301527f697374656e7420746f6b656e00000000000000000000000000000000000000006020830152604082019050919050565b60006129ac601d83613127565b91507f436f756c64206e6f742070617920636f6e7472616374206f776e6572210000006000830152602082019050919050565b60006129ec602083613127565b91507f4f776e61626c653a2063616c6c6572206973206e6f7420746865206f776e65726000830152602082019050919050565b6000612a2c602983613127565b91507f4552433732313a207472616e73666572206f6620746f6b656e2074686174206960008301527f73206e6f74206f776e00000000000000000000000000000000000000000000006020830152604082019050919050565b6000612a92602f83613127565b91507f4552433732314d657461646174613a2055524920717565727920666f72206e6f60008301527f6e6578697374656e7420746f6b656e00000000000000000000000000000000006020830152604082019050919050565b6000612af8602883613127565b91507f546865206d6178696d756d206e756d626572206f6620546f6b656e732077617360008301527f20726561636865640000000000000000000000000000000000000000000000006020830152604082019050919050565b6000612b5e602183613127565b91507f4552433732313a20617070726f76616c20746f2063757272656e74206f776e6560008301527f72000000000000000000000000000000000000000000000000000000000000006020830152604082019050919050565b6000612bc4602283613127565b91507f4e6f7420656e6f7567682045544820746f206d696e742061206e657720546f6b60008301527f656e0000000000000000000000000000000000000000000000000000000000006020830152604082019050919050565b6000612c2a60008361311c565b9150600082019050919050565b6000612c44603183613127565b91507f4552433732313a207472616e736665722063616c6c6572206973206e6f74206f60008301527f776e6572206e6f7220617070726f7665640000000000000000000000000000006020830152604082019050919050565b612ca6816132c2565b82525050565b6000612cb8828561244c565b9150612cc4828461244c565b91508190509392505050565b6000612cdb82612c1d565b9150819050919050565b6000602082019050612cfa60008301846123bc565b92915050565b6000608082019050612d1560008301876123bc565b612d2260208301866123bc565b612d2f6040830185612c9d565b8181036060830152612d4181846123da565b905095945050505050565b6000602082019050612d6160008301846123cb565b92915050565b60006020820190508181036000830152612d818184612413565b905092915050565b60006020820190508181036000830152612da28161247d565b9050919050565b60006020820190508181036000830152612dc2816124e3565b9050919050565b60006020820190508181036000830152612de281612549565b9050919050565b60006020820190508181036000830152612e02816125af565b9050919050565b60006020820190508181036000830152612e22816125ef565b9050919050565b60006020820190508181036000830152612e4281612655565b9050919050565b60006020820190508181036000830152612e6281612695565b9050919050565b60006020820190508181036000830152612e82816126fb565b9050919050565b60006020820190508181036000830152612ea281612761565b9050919050565b60006020820190508181036000830152612ec2816127c7565b9050919050565b60006020820190508181036000830152612ee28161282d565b9050919050565b60006020820190508181036000830152612f0281612893565b9050919050565b60006020820190508181036000830152612f22816128d3565b9050919050565b60006020820190508181036000830152612f4281612939565b9050919050565b60006020820190508181036000830152612f628161299f565b9050919050565b60006020820190508181036000830152612f82816129df565b9050919050565b60006020820190508181036000830152612fa281612a1f565b9050919050565b60006020820190508181036000830152612fc281612a85565b9050919050565b60006020820190508181036000830152612fe281612aeb565b9050919050565b6000602082019050818103600083015261300281612b51565b9050919050565b6000602082019050818103600083015261302281612bb7565b9050919050565b6000602082019050818103600083015261304281612c37565b9050919050565b600060208201905061305e6000830184612c9d565b92915050565b6000604051905081810181811067ffffffffffffffff8211171561308b5761308a613447565b5b8060405250919050565b600067ffffffffffffffff8211156130b0576130af613447565b5b601f19601f8301169050602081019050919050565b600067ffffffffffffffff8211156130e0576130df613447565b5b601f19601f8301169050602081019050919050565b600081519050919050565b600081519050919050565b600082825260208201905092915050565b600081905092915050565b600082825260208201905092915050565b600081905092915050565b600061314e826132c2565b9150613159836132c2565b9250827fffffffffffffffffffffffffffffffffffffffffffffffffffffffffffffffff0382111561318e5761318d6133ba565b5b828201905092915050565b60006131a4826132c2565b91506131af836132c2565b9250826131bf576131be6133e9565b5b828204905092915050565b60006131d5826132c2565b91506131e0836132c2565b9250817fffffffffffffffffffffffffffffffffffffffffffffffffffffffffffffffff0483118215151615613219576132186133ba565b5b828202905092915050565b600061322f826132c2565b915061323a836132c2565b92508282101561324d5761324c6133ba565b5b828203905092915050565b6000613263826132a2565b9050919050565b60008115159050919050565b60007fffffffff0000000000000000000000000000000000000000000000000000000082169050919050565b600073ffffffffffffffffffffffffffffffffffffffff82169050919050565b6000819050919050565b82818337600083830152505050565b60005b838110156132f95780820151818401526020810190506132de565b83811115613308576000848401525b50505050565b6000600282049050600182168061332657607f821691505b6020821081141561333a57613339613418565b5b50919050565b600061334b826132c2565b91507fffffffffffffffffffffffffffffffffffffffffffffffffffffffffffffffff82141561337e5761337d6133ba565b5b600182019050919050565b6000613394826132c2565b915061339f836132c2565b9250826133af576133ae6133e9565b5b828206905092915050565b7f4e487b7100000000000000000000000000000000000000000000000000000000600052601160045260246000fd5b7f4e487b7100000000000000000000000000000000000000000000000000000000600052601260045260246000fd5b7f4e487b7100000000000000000000000000000000000000000000000000000000600052602260045260246000fd5b7f4e487b7100000000000000000000000000000000000000000000000000000000600052604160045260246000fd5b6000601f19601f8301169050919050565b61349081613258565b811461349b57600080fd5b50565b6134a78161326a565b81146134b257600080fd5b50565b6134be81613276565b81146134c957600080fd5b50565b6134d5816132c2565b81146134e057600080fd5b5056fea2646970667358221220b29bb758fa07d6a9b614e7b5a2be2f4407f0415afc5d8c9b61717150baec84df64736f6c63430008000033",
  "immutableReferences": {},
  "source": "// contracts/Days365.sol\r\n// SPDX-License-Identifier: MIT\r\npragma solidity ^0.8.0;\r\n\r\nimport \"@openzeppelin/contracts/token/ERC721/extensions/ERC721URIStorage.sol\";\r\nimport \"@openzeppelin/contracts/access/Ownable.sol\";\r\nimport \"@openzeppelin/contracts/utils/Counters.sol\";\r\n\r\ncontract Days365 is ERC721URIStorage, Ownable {\r\n    using Counters for Counters.Counter;\r\n\r\n    uint256 internal baseFee;\r\n    Counters.Counter private _tokensCounter;\r\n    uint256 public maxSupply;\r\n\r\n    constructor() ERC721(\"365Days\", \"DAY\")\r\n    {\r\n        baseFee = 5 * 10**15; // 0.005 ETH\r\n        maxSupply = 365;\r\n    }\r\n\r\n    function currentFee() public view returns (uint256) { \r\n        return baseFee * (_tokensCounter.current() + 1);\r\n    }\r\n\r\n    function tokensCount() public view returns (uint) {\r\n        return _tokensCounter.current();\r\n    }\r\n            \r\n    function setTokenURI(uint256 tokenId, string memory _tokenURI) public {\r\n        // ?? To check if the approver should have access\r\n        require(ownerOf(tokenId) == _msgSender(), \"Only owner can sent a new token URI\");\r\n        _setTokenURI(tokenId, _tokenURI);\r\n    }\r\n\r\n    function mintToken(string memory tokenURI) public payable {\r\n        require(\r\n            msg.value >= currentFee(),\r\n            \"Not enough ETH to mint a new Token\"\r\n        );\r\n\r\n        require(\r\n            _tokensCounter.current() < maxSupply,\r\n            \"The maximum number of Tokens was reached\"\r\n        );\r\n\r\n        (bool sent, ) = owner().call{value: msg.value }(\"\");\r\n        require(sent, \"Could not pay contract owner!\");\r\n\r\n         _tokensCounter.increment();\r\n        _safeMint(msg.sender, _tokensCounter.current());\r\n        _setTokenURI(_tokensCounter.current(), tokenURI);\r\n    }\r\n}",
  "sourcePath": "E:\\Users\\adria\\Ether\\365days\\contracts\\Days365.sol",
  "compiler": {
    "name": "solc",
    "version": "0.8.0+commit.c7dfd78e.Emscripten.clang"
  },
  "schemaVersion": "3.4.3",
  "updatedAt": "2022-02-05T16:49:12.642Z",
  "networkType": "ethereum",
  "devdoc": {
    "kind": "dev",
    "methods": {
      "approve(address,uint256)": {
        "details": "See {IERC721-approve}."
      },
      "balanceOf(address)": {
        "details": "See {IERC721-balanceOf}."
      },
      "getApproved(uint256)": {
        "details": "See {IERC721-getApproved}."
      },
      "isApprovedForAll(address,address)": {
        "details": "See {IERC721-isApprovedForAll}."
      },
      "name()": {
        "details": "See {IERC721Metadata-name}."
      },
      "owner()": {
        "details": "Returns the address of the current owner."
      },
      "ownerOf(uint256)": {
        "details": "See {IERC721-ownerOf}."
      },
      "renounceOwnership()": {
        "details": "Leaves the contract without owner. It will not be possible to call `onlyOwner` functions anymore. Can only be called by the current owner. NOTE: Renouncing ownership will leave the contract without an owner, thereby removing any functionality that is only available to the owner."
      },
      "safeTransferFrom(address,address,uint256)": {
        "details": "See {IERC721-safeTransferFrom}."
      },
      "safeTransferFrom(address,address,uint256,bytes)": {
        "details": "See {IERC721-safeTransferFrom}."
      },
      "setApprovalForAll(address,bool)": {
        "details": "See {IERC721-setApprovalForAll}."
      },
      "supportsInterface(bytes4)": {
        "details": "See {IERC165-supportsInterface}."
      },
      "symbol()": {
        "details": "See {IERC721Metadata-symbol}."
      },
      "tokenURI(uint256)": {
        "details": "See {IERC721Metadata-tokenURI}."
      },
      "transferFrom(address,address,uint256)": {
        "details": "See {IERC721-transferFrom}."
      },
      "transferOwnership(address)": {
        "details": "Transfers ownership of the contract to a new account (`newOwner`). Can only be called by the current owner."
      }
    },
    "version": 1
  },
  "userdoc": {
    "kind": "user",
    "methods": {},
    "version": 1
  }
}