{
  "contractName": "Days365",
  "abi": [
    {
      "inputs": [],
      "stateMutability": "nonpayable",
      "type": "constructor"
    },
    {
      "anonymous": false,
      "inputs": [
        {
          "indexed": true,
          "internalType": "address",
          "name": "owner",
          "type": "address"
        },
        {
          "indexed": true,
          "internalType": "address",
          "name": "approved",
          "type": "address"
        },
        {
          "indexed": true,
          "internalType": "uint256",
          "name": "tokenId",
          "type": "uint256"
        }
      ],
      "name": "Approval",
      "type": "event"
    },
    {
      "anonymous": false,
      "inputs": [
        {
          "indexed": true,
          "internalType": "address",
          "name": "owner",
          "type": "address"
        },
        {
          "indexed": true,
          "internalType": "address",
          "name": "operator",
          "type": "address"
        },
        {
          "indexed": false,
          "internalType": "bool",
          "name": "approved",
          "type": "bool"
        }
      ],
      "name": "ApprovalForAll",
      "type": "event"
    },
    {
      "anonymous": false,
      "inputs": [
        {
          "indexed": true,
          "internalType": "address",
          "name": "previousOwner",
          "type": "address"
        },
        {
          "indexed": true,
          "internalType": "address",
          "name": "newOwner",
          "type": "address"
        }
      ],
      "name": "OwnershipTransferred",
      "type": "event"
    },
    {
      "anonymous": false,
      "inputs": [
        {
          "indexed": true,
          "internalType": "address",
          "name": "from",
          "type": "address"
        },
        {
          "indexed": true,
          "internalType": "address",
          "name": "to",
          "type": "address"
        },
        {
          "indexed": true,
          "internalType": "uint256",
          "name": "tokenId",
          "type": "uint256"
        }
      ],
      "name": "Transfer",
      "type": "event"
    },
    {
      "anonymous": false,
      "inputs": [
        {
          "indexed": true,
          "internalType": "uint256",
          "name": "nftId",
          "type": "uint256"
        },
        {
          "indexed": false,
          "internalType": "address",
          "name": "owner",
          "type": "address"
        }
      ],
      "name": "UriChange",
      "type": "event"
    },
    {
      "inputs": [
        {
          "internalType": "address",
          "name": "to",
          "type": "address"
        },
        {
          "internalType": "uint256",
          "name": "tokenId",
          "type": "uint256"
        }
      ],
      "name": "approve",
      "outputs": [],
      "stateMutability": "nonpayable",
      "type": "function"
    },
    {
      "inputs": [
        {
          "internalType": "address",
          "name": "owner",
          "type": "address"
        }
      ],
      "name": "balanceOf",
      "outputs": [
        {
          "internalType": "uint256",
          "name": "",
          "type": "uint256"
        }
      ],
      "stateMutability": "view",
      "type": "function",
      "constant": true
    },
    {
      "inputs": [
        {
          "internalType": "uint256",
          "name": "tokenId",
          "type": "uint256"
        }
      ],
      "name": "getApproved",
      "outputs": [
        {
          "internalType": "address",
          "name": "",
          "type": "address"
        }
      ],
      "stateMutability": "view",
      "type": "function",
      "constant": true
    },
    {
      "inputs": [
        {
          "internalType": "address",
          "name": "owner",
          "type": "address"
        },
        {
          "internalType": "address",
          "name": "operator",
          "type": "address"
        }
      ],
      "name": "isApprovedForAll",
      "outputs": [
        {
          "internalType": "bool",
          "name": "",
          "type": "bool"
        }
      ],
      "stateMutability": "view",
      "type": "function",
      "constant": true
    },
    {
      "inputs": [],
      "name": "maxSupply",
      "outputs": [
        {
          "internalType": "uint256",
          "name": "",
          "type": "uint256"
        }
      ],
      "stateMutability": "view",
      "type": "function",
      "constant": true
    },
    {
      "inputs": [],
      "name": "name",
      "outputs": [
        {
          "internalType": "string",
          "name": "",
          "type": "string"
        }
      ],
      "stateMutability": "view",
      "type": "function",
      "constant": true
    },
    {
      "inputs": [],
      "name": "owner",
      "outputs": [
        {
          "internalType": "address",
          "name": "",
          "type": "address"
        }
      ],
      "stateMutability": "view",
      "type": "function",
      "constant": true
    },
    {
      "inputs": [
        {
          "internalType": "uint256",
          "name": "tokenId",
          "type": "uint256"
        }
      ],
      "name": "ownerOf",
      "outputs": [
        {
          "internalType": "address",
          "name": "",
          "type": "address"
        }
      ],
      "stateMutability": "view",
      "type": "function",
      "constant": true
    },
    {
      "inputs": [],
      "name": "renounceOwnership",
      "outputs": [],
      "stateMutability": "nonpayable",
      "type": "function"
    },
    {
      "inputs": [
        {
          "internalType": "address",
          "name": "from",
          "type": "address"
        },
        {
          "internalType": "address",
          "name": "to",
          "type": "address"
        },
        {
          "internalType": "uint256",
          "name": "tokenId",
          "type": "uint256"
        }
      ],
      "name": "safeTransferFrom",
      "outputs": [],
      "stateMutability": "nonpayable",
      "type": "function"
    },
    {
      "inputs": [
        {
          "internalType": "address",
          "name": "from",
          "type": "address"
        },
        {
          "internalType": "address",
          "name": "to",
          "type": "address"
        },
        {
          "internalType": "uint256",
          "name": "tokenId",
          "type": "uint256"
        },
        {
          "internalType": "bytes",
          "name": "_data",
          "type": "bytes"
        }
      ],
      "name": "safeTransferFrom",
      "outputs": [],
      "stateMutability": "nonpayable",
      "type": "function"
    },
    {
      "inputs": [
        {
          "internalType": "address",
          "name": "operator",
          "type": "address"
        },
        {
          "internalType": "bool",
          "name": "approved",
          "type": "bool"
        }
      ],
      "name": "setApprovalForAll",
      "outputs": [],
      "stateMutability": "nonpayable",
      "type": "function"
    },
    {
      "inputs": [
        {
          "internalType": "bytes4",
          "name": "interfaceId",
          "type": "bytes4"
        }
      ],
      "name": "supportsInterface",
      "outputs": [
        {
          "internalType": "bool",
          "name": "",
          "type": "bool"
        }
      ],
      "stateMutability": "view",
      "type": "function",
      "constant": true
    },
    {
      "inputs": [],
      "name": "symbol",
      "outputs": [
        {
          "internalType": "string",
          "name": "",
          "type": "string"
        }
      ],
      "stateMutability": "view",
      "type": "function",
      "constant": true
    },
    {
      "inputs": [
        {
          "internalType": "uint256",
          "name": "tokenId",
          "type": "uint256"
        }
      ],
      "name": "tokenURI",
      "outputs": [
        {
          "internalType": "string",
          "name": "",
          "type": "string"
        }
      ],
      "stateMutability": "view",
      "type": "function",
      "constant": true
    },
    {
      "inputs": [
        {
          "internalType": "address",
          "name": "from",
          "type": "address"
        },
        {
          "internalType": "address",
          "name": "to",
          "type": "address"
        },
        {
          "internalType": "uint256",
          "name": "tokenId",
          "type": "uint256"
        }
      ],
      "name": "transferFrom",
      "outputs": [],
      "stateMutability": "nonpayable",
      "type": "function"
    },
    {
      "inputs": [
        {
          "internalType": "address",
          "name": "newOwner",
          "type": "address"
        }
      ],
      "name": "transferOwnership",
      "outputs": [],
      "stateMutability": "nonpayable",
      "type": "function"
    },
    {
      "inputs": [],
      "name": "currentFee",
      "outputs": [
        {
          "internalType": "uint256",
          "name": "",
          "type": "uint256"
        }
      ],
      "stateMutability": "view",
      "type": "function",
      "constant": true
    },
    {
      "inputs": [],
      "name": "tokensCount",
      "outputs": [
        {
          "internalType": "uint256",
          "name": "",
          "type": "uint256"
        }
      ],
      "stateMutability": "view",
      "type": "function",
      "constant": true
    },
    {
      "inputs": [
        {
          "internalType": "uint256",
          "name": "tokenId",
          "type": "uint256"
        },
        {
          "internalType": "string",
          "name": "_tokenURI",
          "type": "string"
        }
      ],
      "name": "setTokenURI",
      "outputs": [],
      "stateMutability": "nonpayable",
      "type": "function"
    },
    {
      "inputs": [
        {
          "internalType": "string",
          "name": "tokenURI",
          "type": "string"
        }
      ],
      "name": "mintToken",
      "outputs": [],
      "stateMutability": "payable",
      "type": "function",
      "payable": true
    }
  ],
  "bytecode": "0x60806040523480156200001157600080fd5b506040518060400160405280600781526020017f33363544617973000000000000000000000000000000000000000000000000008152506040518060400160405280600381526020017f4441590000000000000000000000000000000000000000000000000000000000815250816000908051906020019062000096929190620001bd565b508060019080519060200190620000af929190620001bd565b505050620000d2620000c6620000ef60201b60201c565b620000f760201b60201c565b6611c37937e0800060088190555061016d600a81905550620002d2565b600033905090565b6000600760009054906101000a900473ffffffffffffffffffffffffffffffffffffffff16905081600760006101000a81548173ffffffffffffffffffffffffffffffffffffffff021916908373ffffffffffffffffffffffffffffffffffffffff1602179055508173ffffffffffffffffffffffffffffffffffffffff168173ffffffffffffffffffffffffffffffffffffffff167f8be0079c531659141344cd1fd0a4f28419497f9722a3daafe3b4186f6b6457e060405160405180910390a35050565b828054620001cb906200026d565b90600052602060002090601f016020900481019282620001ef57600085556200023b565b82601f106200020a57805160ff19168380011785556200023b565b828001600101855582156200023b579182015b828111156200023a5782518255916020019190600101906200021d565b5b5090506200024a91906200024e565b5090565b5b80821115620002695760008160009055506001016200024f565b5090565b600060028204905060018216806200028657607f821691505b602082108114156200029d576200029c620002a3565b5b50919050565b7f4e487b7100000000000000000000000000000000000000000000000000000000600052602260045260246000fd5b6136b880620002e26000396000f3fe60806040526004361061012a5760003560e01c8063715018a6116100ab578063b88d4fde1161006f578063b88d4fde146103cf578063c87b56dd146103f8578063d5abeb0114610435578063da3c300d14610460578063e985e9c51461048b578063f2fde38b146104c85761012a565b8063715018a61461030e5780638da5cb5b1461032557806395d89b4114610350578063a22cb4651461037b578063a64ed8ba146103a45761012a565b806323b872dd116100f257806323b872dd1461022657806333eba49a1461024f57806342842e0e1461026b5780636352211e1461029457806370a08231146102d15761012a565b806301ffc9a71461012f57806306fdde031461016c578063081812fc14610197578063095ea7b3146101d4578063162094c4146101fd575b600080fd5b34801561013b57600080fd5b5061015660048036038101906101519190612310565b6104f1565b60405161016391906128b5565b60405180910390f35b34801561017857600080fd5b506101816105d3565b60405161018e91906128d0565b60405180910390f35b3480156101a357600080fd5b506101be60048036038101906101b991906123a3565b610665565b6040516101cb919061284e565b60405180910390f35b3480156101e057600080fd5b506101fb60048036038101906101f691906122d4565b6106ea565b005b34801561020957600080fd5b50610224600480360381019061021f91906123cc565b610802565b005b34801561023257600080fd5b5061024d600480360381019061024891906121ce565b6108c5565b005b61026960048036038101906102649190612362565b610925565b005b34801561027757600080fd5b50610292600480360381019061028d91906121ce565b610aa3565b005b3480156102a057600080fd5b506102bb60048036038101906102b691906123a3565b610ac3565b6040516102c8919061284e565b60405180910390f35b3480156102dd57600080fd5b506102f860048036038101906102f39190612169565b610b75565b6040516103059190612bb2565b60405180910390f35b34801561031a57600080fd5b50610323610c2d565b005b34801561033157600080fd5b5061033a610cb5565b604051610347919061284e565b60405180910390f35b34801561035c57600080fd5b50610365610cdf565b60405161037291906128d0565b60405180910390f35b34801561038757600080fd5b506103a2600480360381019061039d9190612298565b610d71565b005b3480156103b057600080fd5b506103b9610d87565b6040516103c69190612bb2565b60405180910390f35b3480156103db57600080fd5b506103f660048036038101906103f1919061221d565b610d98565b005b34801561040457600080fd5b5061041f600480360381019061041a91906123a3565b610dfa565b60405161042c91906128d0565b60405180910390f35b34801561044157600080fd5b5061044a610f4c565b6040516104579190612bb2565b60405180910390f35b34801561046c57600080fd5b50610475610f52565b6040516104829190612bb2565b60405180910390f35b34801561049757600080fd5b506104b260048036038101906104ad9190612192565b610f7c565b6040516104bf91906128b5565b60405180910390f35b3480156104d457600080fd5b506104ef60048036038101906104ea9190612169565b611010565b005b60007f80ac58cd000000000000000000000000000000000000000000000000000000007bffffffffffffffffffffffffffffffffffffffffffffffffffffffff1916827bffffffffffffffffffffffffffffffffffffffffffffffffffffffff191614806105bc57507f5b5e139f000000000000000000000000000000000000000000000000000000007bffffffffffffffffffffffffffffffffffffffffffffffffffffffff1916827bffffffffffffffffffffffffffffffffffffffffffffffffffffffff1916145b806105cc57506105cb82611108565b5b9050919050565b6060600080546105e290612e6d565b80601f016020809104026020016040519081016040528092919081815260200182805461060e90612e6d565b801561065b5780601f106106305761010080835404028352916020019161065b565b820191906000526020600020905b81548152906001019060200180831161063e57829003601f168201915b5050505050905090565b600061067082611172565b6106af576040517f08c379a00000000000000000000000000000000000000000000000000000000081526004016106a690612ab2565b60405180910390fd5b6004600083815260200190815260200160002060009054906101000a900473ffffffffffffffffffffffffffffffffffffffff169050919050565b60006106f582610ac3565b90508073ffffffffffffffffffffffffffffffffffffffff168373ffffffffffffffffffffffffffffffffffffffff161415610766576040517f08c379a000000000000000000000000000000000000000000000000000000000815260040161075d90612b52565b60405180910390fd5b8073ffffffffffffffffffffffffffffffffffffffff166107856111de565b73ffffffffffffffffffffffffffffffffffffffff1614806107b457506107b3816107ae6111de565b610f7c565b5b6107f3576040517f08c379a00000000000000000000000000000000000000000000000000000000081526004016107ea906129f2565b60405180910390fd5b6107fd83836111e6565b505050565b61080a6111de565b73ffffffffffffffffffffffffffffffffffffffff1661082983610ac3565b73ffffffffffffffffffffffffffffffffffffffff161461087f576040517f08c379a0000000000000000000000000000000000000000000000000000000008152600401610876906128f2565b60405180910390fd5b610889828261129f565b817fb117e7ed843e896055ed58a6e0b81cab507fc69603f13853956d70f54e169fe1336040516108b9919061284e565b60405180910390a25050565b6108d66108d06111de565b82611313565b610915576040517f08c379a000000000000000000000000000000000000000000000000000000000815260040161090c90612b92565b60405180910390fd5b6109208383836113f1565b505050565b61092d610f52565b34101561096f576040517f08c379a000000000000000000000000000000000000000000000000000000000815260040161096690612b72565b60405180910390fd5b600a5461097c6009611658565b106109bc576040517f08c379a00000000000000000000000000000000000000000000000000000000081526004016109b390612b32565b60405180910390fd5b60006109c6610cb5565b73ffffffffffffffffffffffffffffffffffffffff16346040516109e990612839565b60006040518083038185875af1925050503d8060008114610a26576040519150601f19603f3d011682016040523d82523d6000602084013e610a2b565b606091505b5050905080610a6f576040517f08c379a0000000000000000000000000000000000000000000000000000000008152600401610a6690612ad2565b60405180910390fd5b610a796009611666565b610a8c33610a876009611658565b61167c565b610a9f610a996009611658565b8361129f565b5050565b610abe83838360405180602001604052806000815250610d98565b505050565b6000806002600084815260200190815260200160002060009054906101000a900473ffffffffffffffffffffffffffffffffffffffff169050600073ffffffffffffffffffffffffffffffffffffffff168173ffffffffffffffffffffffffffffffffffffffff161415610b6c576040517f08c379a0000000000000000000000000000000000000000000000000000000008152600401610b6390612a32565b60405180910390fd5b80915050919050565b60008073ffffffffffffffffffffffffffffffffffffffff168273ffffffffffffffffffffffffffffffffffffffff161415610be6576040517f08c379a0000000000000000000000000000000000000000000000000000000008152600401610bdd90612a12565b60405180910390fd5b600360008373ffffffffffffffffffffffffffffffffffffffff1673ffffffffffffffffffffffffffffffffffffffff168152602001908152602001600020549050919050565b610c356111de565b73ffffffffffffffffffffffffffffffffffffffff16610c53610cb5565b73ffffffffffffffffffffffffffffffffffffffff1614610ca9576040517f08c379a0000000000000000000000000000000000000000000000000000000008152600401610ca090612af2565b60405180910390fd5b610cb3600061169a565b565b6000600760009054906101000a900473ffffffffffffffffffffffffffffffffffffffff16905090565b606060018054610cee90612e6d565b80601f0160208091040260200160405190810160405280929190818152602001828054610d1a90612e6d565b8015610d675780601f10610d3c57610100808354040283529160200191610d67565b820191906000526020600020905b815481529060010190602001808311610d4a57829003601f168201915b5050505050905090565b610d83610d7c6111de565b8383611760565b5050565b6000610d936009611658565b905090565b610da9610da36111de565b83611313565b610de8576040517f08c379a0000000000000000000000000000000000000000000000000000000008152600401610ddf90612b92565b60405180910390fd5b610df4848484846118cd565b50505050565b6060610e0582611172565b610e44576040517f08c379a0000000000000000000000000000000000000000000000000000000008152600401610e3b90612a92565b60405180910390fd5b6000600660008481526020019081526020016000208054610e6490612e6d565b80601f0160208091040260200160405190810160405280929190818152602001828054610e9090612e6d565b8015610edd5780601f10610eb257610100808354040283529160200191610edd565b820191906000526020600020905b815481529060010190602001808311610ec057829003601f168201915b505050505090506000610eee611929565b9050600081511415610f04578192505050610f47565b600082511115610f39578082604051602001610f21929190612815565b60405160208183030381529060405292505050610f47565b610f4284611940565b925050505b919050565b600a5481565b60006001610f606009611658565b610f6a9190612ca2565b600854610f779190612d29565b905090565b6000600560008473ffffffffffffffffffffffffffffffffffffffff1673ffffffffffffffffffffffffffffffffffffffff16815260200190815260200160002060008373ffffffffffffffffffffffffffffffffffffffff1673ffffffffffffffffffffffffffffffffffffffff16815260200190815260200160002060009054906101000a900460ff16905092915050565b6110186111de565b73ffffffffffffffffffffffffffffffffffffffff16611036610cb5565b73ffffffffffffffffffffffffffffffffffffffff161461108c576040517f08c379a000000000000000000000000000000000000000000000000000000000815260040161108390612af2565b60405180910390fd5b600073ffffffffffffffffffffffffffffffffffffffff168173ffffffffffffffffffffffffffffffffffffffff1614156110fc576040517f08c379a00000000000000000000000000000000000000000000000000000000081526004016110f390612932565b60405180910390fd5b6111058161169a565b50565b60007f01ffc9a7000000000000000000000000000000000000000000000000000000007bffffffffffffffffffffffffffffffffffffffffffffffffffffffff1916827bffffffffffffffffffffffffffffffffffffffffffffffffffffffff1916149050919050565b60008073ffffffffffffffffffffffffffffffffffffffff166002600084815260200190815260200160002060009054906101000a900473ffffffffffffffffffffffffffffffffffffffff1673ffffffffffffffffffffffffffffffffffffffff1614159050919050565b600033905090565b816004600083815260200190815260200160002060006101000a81548173ffffffffffffffffffffffffffffffffffffffff021916908373ffffffffffffffffffffffffffffffffffffffff160217905550808273ffffffffffffffffffffffffffffffffffffffff1661125983610ac3565b73ffffffffffffffffffffffffffffffffffffffff167f8c5be1e5ebec7d5bd14f71427d1e84f3dd0314c0f7b2291e5b200ac8c7c3b92560405160405180910390a45050565b6112a882611172565b6112e7576040517f08c379a00000000000000000000000000000000000000000000000000000000081526004016112de90612a52565b60405180910390fd5b8060066000848152602001908152602001600020908051906020019061130e929190611f8d565b505050565b600061131e82611172565b61135d576040517f08c379a0000000000000000000000000000000000000000000000000000000008152600401611354906129d2565b60405180910390fd5b600061136883610ac3565b90508073ffffffffffffffffffffffffffffffffffffffff168473ffffffffffffffffffffffffffffffffffffffff1614806113d757508373ffffffffffffffffffffffffffffffffffffffff166113bf84610665565b73ffffffffffffffffffffffffffffffffffffffff16145b806113e857506113e78185610f7c565b5b91505092915050565b8273ffffffffffffffffffffffffffffffffffffffff1661141182610ac3565b73ffffffffffffffffffffffffffffffffffffffff1614611467576040517f08c379a000000000000000000000000000000000000000000000000000000000815260040161145e90612952565b60405180910390fd5b600073ffffffffffffffffffffffffffffffffffffffff168273ffffffffffffffffffffffffffffffffffffffff1614156114d7576040517f08c379a00000000000000000000000000000000000000000000000000000000081526004016114ce90612992565b60405180910390fd5b6114e28383836119e7565b6114ed6000826111e6565b6001600360008573ffffffffffffffffffffffffffffffffffffffff1673ffffffffffffffffffffffffffffffffffffffff168152602001908152602001600020600082825461153d9190612d83565b925050819055506001600360008473ffffffffffffffffffffffffffffffffffffffff1673ffffffffffffffffffffffffffffffffffffffff16815260200190815260200160002060008282546115949190612ca2565b92505081905550816002600083815260200190815260200160002060006101000a81548173ffffffffffffffffffffffffffffffffffffffff021916908373ffffffffffffffffffffffffffffffffffffffff160217905550808273ffffffffffffffffffffffffffffffffffffffff168473ffffffffffffffffffffffffffffffffffffffff167fddf252ad1be2c89b69c2b068fc378daa952ba7f163c4a11628f55a4df523b3ef60405160405180910390a46116538383836119ec565b505050565b600081600001549050919050565b6001816000016000828254019250508190555050565b6116968282604051806020016040528060008152506119f1565b5050565b6000600760009054906101000a900473ffffffffffffffffffffffffffffffffffffffff16905081600760006101000a81548173ffffffffffffffffffffffffffffffffffffffff021916908373ffffffffffffffffffffffffffffffffffffffff1602179055508173ffffffffffffffffffffffffffffffffffffffff168173ffffffffffffffffffffffffffffffffffffffff167f8be0079c531659141344cd1fd0a4f28419497f9722a3daafe3b4186f6b6457e060405160405180910390a35050565b8173ffffffffffffffffffffffffffffffffffffffff168373ffffffffffffffffffffffffffffffffffffffff1614156117cf576040517f08c379a00000000000000000000000000000000000000000000000000000000081526004016117c6906129b2565b60405180910390fd5b80600560008573ffffffffffffffffffffffffffffffffffffffff1673ffffffffffffffffffffffffffffffffffffffff16815260200190815260200160002060008473ffffffffffffffffffffffffffffffffffffffff1673ffffffffffffffffffffffffffffffffffffffff16815260200190815260200160002060006101000a81548160ff0219169083151502179055508173ffffffffffffffffffffffffffffffffffffffff168373ffffffffffffffffffffffffffffffffffffffff167f17307eab39ab6107e8899845ad3d59bd9653f200f220920489ca2b5937696c31836040516118c091906128b5565b60405180910390a3505050565b6118d88484846113f1565b6118e484848484611a4c565b611923576040517f08c379a000000000000000000000000000000000000000000000000000000000815260040161191a90612912565b60405180910390fd5b50505050565b606060405180602001604052806000815250905090565b606061194b82611172565b61198a576040517f08c379a000000000000000000000000000000000000000000000000000000000815260040161198190612b12565b60405180910390fd5b6000611994611929565b905060008151116119b457604051806020016040528060008152506119df565b806119be84611be3565b6040516020016119cf929190612815565b6040516020818303038152906040525b915050919050565b505050565b505050565b6119fb8383611d90565b611a086000848484611a4c565b611a47576040517f08c379a0000000000000000000000000000000000000000000000000000000008152600401611a3e90612912565b60405180910390fd5b505050565b6000611a6d8473ffffffffffffffffffffffffffffffffffffffff16611f6a565b15611bd6578373ffffffffffffffffffffffffffffffffffffffff1663150b7a02611a966111de565b8786866040518563ffffffff1660e01b8152600401611ab89493929190612869565b602060405180830381600087803b158015611ad257600080fd5b505af1925050508015611b0357506040513d601f19601f82011682018060405250810190611b009190612339565b60015b611b86573d8060008114611b33576040519150601f19603f3d011682016040523d82523d6000602084013e611b38565b606091505b50600081511415611b7e576040517f08c379a0000000000000000000000000000000000000000000000000000000008152600401611b7590612912565b60405180910390fd5b805181602001fd5b63150b7a0260e01b7bffffffffffffffffffffffffffffffffffffffffffffffffffffffff1916817bffffffffffffffffffffffffffffffffffffffffffffffffffffffff191614915050611bdb565b600190505b949350505050565b60606000821415611c2b576040518060400160405280600181526020017f30000000000000000000000000000000000000000000000000000000000000008152509050611d8b565b600082905060005b60008214611c5d578080611c4690612ed0565b915050600a82611c569190612cf8565b9150611c33565b60008167ffffffffffffffff811115611c9f577f4e487b7100000000000000000000000000000000000000000000000000000000600052604160045260246000fd5b6040519080825280601f01601f191660200182016040528015611cd15781602001600182028036833780820191505090505b5090505b60008514611d8457600182611cea9190612d83565b9150600a85611cf99190612f19565b6030611d059190612ca2565b60f81b818381518110611d41577f4e487b7100000000000000000000000000000000000000000000000000000000600052603260045260246000fd5b60200101907effffffffffffffffffffffffffffffffffffffffffffffffffffffffffffff1916908160001a905350600a85611d7d9190612cf8565b9450611cd5565b8093505050505b919050565b600073ffffffffffffffffffffffffffffffffffffffff168273ffffffffffffffffffffffffffffffffffffffff161415611e00576040517f08c379a0000000000000000000000000000000000000000000000000000000008152600401611df790612a72565b60405180910390fd5b611e0981611172565b15611e49576040517f08c379a0000000000000000000000000000000000000000000000000000000008152600401611e4090612972565b60405180910390fd5b611e55600083836119e7565b6001600360008473ffffffffffffffffffffffffffffffffffffffff1673ffffffffffffffffffffffffffffffffffffffff1681526020019081526020016000206000828254611ea59190612ca2565b92505081905550816002600083815260200190815260200160002060006101000a81548173ffffffffffffffffffffffffffffffffffffffff021916908373ffffffffffffffffffffffffffffffffffffffff160217905550808273ffffffffffffffffffffffffffffffffffffffff16600073ffffffffffffffffffffffffffffffffffffffff167fddf252ad1be2c89b69c2b068fc378daa952ba7f163c4a11628f55a4df523b3ef60405160405180910390a4611f66600083836119ec565b5050565b6000808273ffffffffffffffffffffffffffffffffffffffff163b119050919050565b828054611f9990612e6d565b90600052602060002090601f016020900481019282611fbb5760008555612002565b82601f10611fd457805160ff1916838001178555612002565b82800160010185558215612002579182015b82811115612001578251825591602001919060010190611fe6565b5b50905061200f9190612013565b5090565b5b8082111561202c576000816000905550600101612014565b5090565b600061204361203e84612bf2565b612bcd565b90508281526020810184848401111561205b57600080fd5b612066848285612e2b565b509392505050565b600061208161207c84612c23565b612bcd565b90508281526020810184848401111561209957600080fd5b6120a4848285612e2b565b509392505050565b6000813590506120bb81613626565b92915050565b6000813590506120d08161363d565b92915050565b6000813590506120e581613654565b92915050565b6000815190506120fa81613654565b92915050565b600082601f83011261211157600080fd5b8135612121848260208601612030565b91505092915050565b600082601f83011261213b57600080fd5b813561214b84826020860161206e565b91505092915050565b6000813590506121638161366b565b92915050565b60006020828403121561217b57600080fd5b6000612189848285016120ac565b91505092915050565b600080604083850312156121a557600080fd5b60006121b3858286016120ac565b92505060206121c4858286016120ac565b9150509250929050565b6000806000606084860312156121e357600080fd5b60006121f1868287016120ac565b9350506020612202868287016120ac565b925050604061221386828701612154565b9150509250925092565b6000806000806080858703121561223357600080fd5b6000612241878288016120ac565b9450506020612252878288016120ac565b935050604061226387828801612154565b925050606085013567ffffffffffffffff81111561228057600080fd5b61228c87828801612100565b91505092959194509250565b600080604083850312156122ab57600080fd5b60006122b9858286016120ac565b92505060206122ca858286016120c1565b9150509250929050565b600080604083850312156122e757600080fd5b60006122f5858286016120ac565b925050602061230685828601612154565b9150509250929050565b60006020828403121561232257600080fd5b6000612330848285016120d6565b91505092915050565b60006020828403121561234b57600080fd5b6000612359848285016120eb565b91505092915050565b60006020828403121561237457600080fd5b600082013567ffffffffffffffff81111561238e57600080fd5b61239a8482850161212a565b91505092915050565b6000602082840312156123b557600080fd5b60006123c384828501612154565b91505092915050565b600080604083850312156123df57600080fd5b60006123ed85828601612154565b925050602083013567ffffffffffffffff81111561240a57600080fd5b6124168582860161212a565b9150509250929050565b61242981612db7565b82525050565b61243881612dc9565b82525050565b600061244982612c54565b6124538185612c6a565b9350612463818560208601612e3a565b61246c81613006565b840191505092915050565b600061248282612c5f565b61248c8185612c86565b935061249c818560208601612e3a565b6124a581613006565b840191505092915050565b60006124bb82612c5f565b6124c58185612c97565b93506124d5818560208601612e3a565b80840191505092915050565b60006124ee602383612c86565b91506124f982613017565b604082019050919050565b6000612511603283612c86565b915061251c82613066565b604082019050919050565b6000612534602683612c86565b915061253f826130b5565b604082019050919050565b6000612557602583612c86565b915061256282613104565b604082019050919050565b600061257a601c83612c86565b915061258582613153565b602082019050919050565b600061259d602483612c86565b91506125a88261317c565b604082019050919050565b60006125c0601983612c86565b91506125cb826131cb565b602082019050919050565b60006125e3602c83612c86565b91506125ee826131f4565b604082019050919050565b6000612606603883612c86565b915061261182613243565b604082019050919050565b6000612629602a83612c86565b915061263482613292565b604082019050919050565b600061264c602983612c86565b9150612657826132e1565b604082019050919050565b600061266f602e83612c86565b915061267a82613330565b604082019050919050565b6000612692602083612c86565b915061269d8261337f565b602082019050919050565b60006126b5603183612c86565b91506126c0826133a8565b604082019050919050565b60006126d8602c83612c86565b91506126e3826133f7565b604082019050919050565b60006126fb601d83612c86565b915061270682613446565b602082019050919050565b600061271e602083612c86565b91506127298261346f565b602082019050919050565b6000612741602f83612c86565b915061274c82613498565b604082019050919050565b6000612764602883612c86565b915061276f826134e7565b604082019050919050565b6000612787602183612c86565b915061279282613536565b604082019050919050565b60006127aa602283612c86565b91506127b582613585565b604082019050919050565b60006127cd600083612c7b565b91506127d8826135d4565b600082019050919050565b60006127f0603183612c86565b91506127fb826135d7565b604082019050919050565b61280f81612e21565b82525050565b600061282182856124b0565b915061282d82846124b0565b91508190509392505050565b6000612844826127c0565b9150819050919050565b60006020820190506128636000830184612420565b92915050565b600060808201905061287e6000830187612420565b61288b6020830186612420565b6128986040830185612806565b81810360608301526128aa818461243e565b905095945050505050565b60006020820190506128ca600083018461242f565b92915050565b600060208201905081810360008301526128ea8184612477565b905092915050565b6000602082019050818103600083015261290b816124e1565b9050919050565b6000602082019050818103600083015261292b81612504565b9050919050565b6000602082019050818103600083015261294b81612527565b9050919050565b6000602082019050818103600083015261296b8161254a565b9050919050565b6000602082019050818103600083015261298b8161256d565b9050919050565b600060208201905081810360008301526129ab81612590565b9050919050565b600060208201905081810360008301526129cb816125b3565b9050919050565b600060208201905081810360008301526129eb816125d6565b9050919050565b60006020820190508181036000830152612a0b816125f9565b9050919050565b60006020820190508181036000830152612a2b8161261c565b9050919050565b60006020820190508181036000830152612a4b8161263f565b9050919050565b60006020820190508181036000830152612a6b81612662565b9050919050565b60006020820190508181036000830152612a8b81612685565b9050919050565b60006020820190508181036000830152612aab816126a8565b9050919050565b60006020820190508181036000830152612acb816126cb565b9050919050565b60006020820190508181036000830152612aeb816126ee565b9050919050565b60006020820190508181036000830152612b0b81612711565b9050919050565b60006020820190508181036000830152612b2b81612734565b9050919050565b60006020820190508181036000830152612b4b81612757565b9050919050565b60006020820190508181036000830152612b6b8161277a565b9050919050565b60006020820190508181036000830152612b8b8161279d565b9050919050565b60006020820190508181036000830152612bab816127e3565b9050919050565b6000602082019050612bc76000830184612806565b92915050565b6000612bd7612be8565b9050612be38282612e9f565b919050565b6000604051905090565b600067ffffffffffffffff821115612c0d57612c0c612fd7565b5b612c1682613006565b9050602081019050919050565b600067ffffffffffffffff821115612c3e57612c3d612fd7565b5b612c4782613006565b9050602081019050919050565b600081519050919050565b600081519050919050565b600082825260208201905092915050565b600081905092915050565b600082825260208201905092915050565b600081905092915050565b6000612cad82612e21565b9150612cb883612e21565b9250827fffffffffffffffffffffffffffffffffffffffffffffffffffffffffffffffff03821115612ced57612cec612f4a565b5b828201905092915050565b6000612d0382612e21565b9150612d0e83612e21565b925082612d1e57612d1d612f79565b5b828204905092915050565b6000612d3482612e21565b9150612d3f83612e21565b9250817fffffffffffffffffffffffffffffffffffffffffffffffffffffffffffffffff0483118215151615612d7857612d77612f4a565b5b828202905092915050565b6000612d8e82612e21565b9150612d9983612e21565b925082821015612dac57612dab612f4a565b5b828203905092915050565b6000612dc282612e01565b9050919050565b60008115159050919050565b60007fffffffff0000000000000000000000000000000000000000000000000000000082169050919050565b600073ffffffffffffffffffffffffffffffffffffffff82169050919050565b6000819050919050565b82818337600083830152505050565b60005b83811015612e58578082015181840152602081019050612e3d565b83811115612e67576000848401525b50505050565b60006002820490506001821680612e8557607f821691505b60208210811415612e9957612e98612fa8565b5b50919050565b612ea882613006565b810181811067ffffffffffffffff82111715612ec757612ec6612fd7565b5b80604052505050565b6000612edb82612e21565b91507fffffffffffffffffffffffffffffffffffffffffffffffffffffffffffffffff821415612f0e57612f0d612f4a565b5b600182019050919050565b6000612f2482612e21565b9150612f2f83612e21565b925082612f3f57612f3e612f79565b5b828206905092915050565b7f4e487b7100000000000000000000000000000000000000000000000000000000600052601160045260246000fd5b7f4e487b7100000000000000000000000000000000000000000000000000000000600052601260045260246000fd5b7f4e487b7100000000000000000000000000000000000000000000000000000000600052602260045260246000fd5b7f4e487b7100000000000000000000000000000000000000000000000000000000600052604160045260246000fd5b6000601f19601f8301169050919050565b7f4f6e6c79206f776e65722063616e2073656e742061206e657720746f6b656e2060008201527f5552490000000000000000000000000000000000000000000000000000000000602082015250565b7f4552433732313a207472616e7366657220746f206e6f6e20455243373231526560008201527f63656976657220696d706c656d656e7465720000000000000000000000000000602082015250565b7f4f776e61626c653a206e6577206f776e657220697320746865207a65726f206160008201527f6464726573730000000000000000000000000000000000000000000000000000602082015250565b7f4552433732313a207472616e736665722066726f6d20696e636f72726563742060008201527f6f776e6572000000000000000000000000000000000000000000000000000000602082015250565b7f4552433732313a20746f6b656e20616c7265616479206d696e74656400000000600082015250565b7f4552433732313a207472616e7366657220746f20746865207a65726f2061646460008201527f7265737300000000000000000000000000000000000000000000000000000000602082015250565b7f4552433732313a20617070726f766520746f2063616c6c657200000000000000600082015250565b7f4552433732313a206f70657261746f7220717565727920666f72206e6f6e657860008201527f697374656e7420746f6b656e0000000000000000000000000000000000000000602082015250565b7f4552433732313a20617070726f76652063616c6c6572206973206e6f74206f7760008201527f6e6572206e6f7220617070726f76656420666f7220616c6c0000000000000000602082015250565b7f4552433732313a2062616c616e636520717565727920666f7220746865207a6560008201527f726f206164647265737300000000000000000000000000000000000000000000602082015250565b7f4552433732313a206f776e657220717565727920666f72206e6f6e657869737460008201527f656e7420746f6b656e0000000000000000000000000000000000000000000000602082015250565b7f45524337323155524953746f726167653a2055524920736574206f66206e6f6e60008201527f6578697374656e7420746f6b656e000000000000000000000000000000000000602082015250565b7f4552433732313a206d696e7420746f20746865207a65726f2061646472657373600082015250565b7f45524337323155524953746f726167653a2055524920717565727920666f722060008201527f6e6f6e6578697374656e7420746f6b656e000000000000000000000000000000602082015250565b7f4552433732313a20617070726f76656420717565727920666f72206e6f6e657860008201527f697374656e7420746f6b656e0000000000000000000000000000000000000000602082015250565b7f436f756c64206e6f742070617920636f6e7472616374206f776e657221000000600082015250565b7f4f776e61626c653a2063616c6c6572206973206e6f7420746865206f776e6572600082015250565b7f4552433732314d657461646174613a2055524920717565727920666f72206e6f60008201527f6e6578697374656e7420746f6b656e0000000000000000000000000000000000602082015250565b7f546865206d6178696d756d206e756d626572206f6620546f6b656e732077617360008201527f2072656163686564000000000000000000000000000000000000000000000000602082015250565b7f4552433732313a20617070726f76616c20746f2063757272656e74206f776e6560008201527f7200000000000000000000000000000000000000000000000000000000000000602082015250565b7f4e6f7420656e6f7567682045544820746f206d696e742061206e657720546f6b60008201527f656e000000000000000000000000000000000000000000000000000000000000602082015250565b50565b7f4552433732313a207472616e736665722063616c6c6572206973206e6f74206f60008201527f776e6572206e6f7220617070726f766564000000000000000000000000000000602082015250565b61362f81612db7565b811461363a57600080fd5b50565b61364681612dc9565b811461365157600080fd5b50565b61365d81612dd5565b811461366857600080fd5b50565b61367481612e21565b811461367f57600080fd5b5056fea2646970667358221220e2dfd7bcae125814b8ea75889b02582c76e01237979d151120039afc1a57af7764736f6c63430008010033",
  "immutableReferences": {},
  "source": "// contracts/Days365.sol\r\n// SPDX-License-Identifier: MIT\r\npragma solidity ^0.8.1;\r\n\r\nimport \"@openzeppelin/contracts/token/ERC721/extensions/ERC721URIStorage.sol\";\r\nimport \"@openzeppelin/contracts/access/Ownable.sol\";\r\nimport \"@openzeppelin/contracts/utils/Counters.sol\";\r\n\r\ncontract Days365 is ERC721URIStorage, Ownable {\r\n    using Counters for Counters.Counter;\r\n\r\n    event UriChange(uint indexed nftId, address owner);\r\n    uint256 internal baseFee;\r\n    Counters.Counter private _tokensCounter;\r\n    uint256 public maxSupply;\r\n\r\n    constructor() ERC721(\"365Days\", \"DAY\")\r\n    {\r\n        baseFee = 5 * 10**15; // 0.005 ETH\r\n        maxSupply = 365;\r\n    }\r\n\r\n    function currentFee() public view returns (uint256) { \r\n        return baseFee * (_tokensCounter.current() + 1);\r\n    }\r\n\r\n    function tokensCount() public view returns (uint) {\r\n        return _tokensCounter.current();\r\n    }\r\n            \r\n    function setTokenURI(uint256 tokenId, string memory _tokenURI) public {\r\n        // ?? To check if the approver should have access\r\n        require(ownerOf(tokenId) == _msgSender(), \"Only owner can sent a new token URI\");\r\n        _setTokenURI(tokenId, _tokenURI);\r\n        emit UriChange(tokenId, msg.sender);\r\n    }\r\n\r\n    function mintToken(string memory tokenURI) public payable {\r\n        require(\r\n            msg.value >= currentFee(),\r\n            \"Not enough ETH to mint a new Token\"\r\n        );\r\n\r\n        require(\r\n            _tokensCounter.current() < maxSupply,\r\n            \"The maximum number of Tokens was reached\"\r\n        );\r\n\r\n        (bool sent, ) = owner().call{value: msg.value }(\"\");\r\n        require(sent, \"Could not pay contract owner!\");\r\n\r\n         _tokensCounter.increment();\r\n        _safeMint(msg.sender, _tokensCounter.current());\r\n        _setTokenURI(_tokensCounter.current(), tokenURI);\r\n    }\r\n}",
  "sourcePath": "E:\\Users\\adria\\Ether\\365days\\contracts\\Days365.sol",
  "compiler": {
    "name": "solc",
    "version": "0.8.1+commit.df193b15.Emscripten.clang"
  },
  "schemaVersion": "3.4.5",
  "updatedAt": "2022-03-04T18:51:21.329Z",
  "networkType": "ethereum",
  "devdoc": {
    "kind": "dev",
    "methods": {
      "approve(address,uint256)": {
        "details": "See {IERC721-approve}."
      },
      "balanceOf(address)": {
        "details": "See {IERC721-balanceOf}."
      },
      "getApproved(uint256)": {
        "details": "See {IERC721-getApproved}."
      },
      "isApprovedForAll(address,address)": {
        "details": "See {IERC721-isApprovedForAll}."
      },
      "name()": {
        "details": "See {IERC721Metadata-name}."
      },
      "owner()": {
        "details": "Returns the address of the current owner."
      },
      "ownerOf(uint256)": {
        "details": "See {IERC721-ownerOf}."
      },
      "renounceOwnership()": {
        "details": "Leaves the contract without owner. It will not be possible to call `onlyOwner` functions anymore. Can only be called by the current owner. NOTE: Renouncing ownership will leave the contract without an owner, thereby removing any functionality that is only available to the owner."
      },
      "safeTransferFrom(address,address,uint256)": {
        "details": "See {IERC721-safeTransferFrom}."
      },
      "safeTransferFrom(address,address,uint256,bytes)": {
        "details": "See {IERC721-safeTransferFrom}."
      },
      "setApprovalForAll(address,bool)": {
        "details": "See {IERC721-setApprovalForAll}."
      },
      "supportsInterface(bytes4)": {
        "details": "See {IERC165-supportsInterface}."
      },
      "symbol()": {
        "details": "See {IERC721Metadata-symbol}."
      },
      "tokenURI(uint256)": {
        "details": "See {IERC721Metadata-tokenURI}."
      },
      "transferFrom(address,address,uint256)": {
        "details": "See {IERC721-transferFrom}."
      },
      "transferOwnership(address)": {
        "details": "Transfers ownership of the contract to a new account (`newOwner`). Can only be called by the current owner."
      }
    },
    "version": 1
  },
  "userdoc": {
    "kind": "user",
    "methods": {},
    "version": 1
  }
}